:020000021000EC
:10F000000000012033F10100D9F00100DBF0010024
:10F01000DDF00100DFF00100E1F001000000000080
:10F02000000000000000000000000000E3F001000C
:10F03000E5F0010000000000E7F00100E9F0010048
:10F04000ED6F0200EDF00100517902001D7F02001A
:10F05000F3F00100F5F0010029740200F9F001005D
:10F06000FBF00100FDF00100FFF0010001F10100E3
:10F0700003F1010005F1010007F1010009F10100B0
:10F080000BF10100C98102000FF1010011F1010033
:10F090006982020015F1010099BD020019F1010019
:10F0A0001BF101001DF101001FF1010021F1010020
:10F0B00023F1010025F10100000000000000000024
:10F0C00027F1010029F101002BF101002DF10100D0
:08F0D0002FF1010031F10100F4
:10F0D800FEE7FEE7FEE7FEE7FEE7FEE7FEE7FEE700
:10F0E800FEE7FEE7FEE7FEE7FEE7FEE7FEE7FEE7F0
:10F0F800FEE7FEE7FEE7FEE7FEE7FEE7FEE7FEE7E0
:10F10800FEE7FEE7FEE7FEE7FEE7FEE7FEE7FEE7CF
:10F11800FEE7FEE7FEE7FEE7FEE7FEE7FEE7FEE7BF
:10F12800FEE7FEE7FEE7FEE7FEE70348854600F058
:10F13800BBF800F003B87047000001203749384891
:10F148000A1A02D0072291438D46364936480A1AD0
:10F1580006D00722914381F30988022282F314889A
:10F1680032483349334A00F048F833483349344A7F
:10F1780000F043F833483449344A00F03EF8344844
:10F188003449354A00F039F834483549354A00F0F1
:10F1980034F835483549364A00F02FF835483649AD
:10F1A800364A00F02AF836483649374A00F025F83A
:10F1B80036483749002200F02BF8364836490022F5
:10F1C80000F026F835483649091A082903DB0022D9
:10F1D8000260043001601F481F49884205D0026858
:10F1E800043003B4904703BCF7E700208646EC469A
:10F1F800002000212B4A9047FEE7884207D0521A88
:10F2080005D0037801300B700131013AF9D170470C
:10F21800884202D002700130FAE7704700000120EE
:10F2280000FC0020000001200000012064310300E0
:10F23800B0200020E8200020B0F20100B0F2010068
:10F2480060DD020064310300B0200020B0200020FF
:10F2580060DD020060DD020060DD020060DD0200AA
:10F2680060DD020060DD020060DD020060DD02009A
:10F27800643103009C310300E8200020E8200020CE
:10F288009C310300E8200020F8200020F82000200E
:10F298001C3A00201C3A00201C3A00201C3A00208E
:08F2A8001C3E0020F5F80100F6
:10F2B000B94B1A78062AF0B41BD0B84AD2F8883075
:10F2C00043F47003C2F88830BFF34F8FBFF36F8FE2
:10F2D0004FF01023D3F80022002AC0F22D81D3F87A
:10F2E0000432002BC0F22881AD4BAE4A1A60F0BC4C
:10F2F000704704331B681B07DFD1AB4B1B6803F05F
:10F30000F002302A00F0088103F0E003402B00F007
:10F310000381A54B1B6803F0F003302B00F0EE8057
:10F32000A14B1B6803F0F002302A00F0D78003F0F5
:10F33000E003402B00F0D2809B4B1B6803F0F003EE
:10F34000302B00F0BB80984B1B6803F0F002302A92
:10F3500000F0A08003F0E003402B00F09B80924B74
:10F360001B6803F0F003302B00F086808E4B1B6887
:10F3700003F0F003302B68D08B4B1B6803F0F003D5
:10F38000502B10D0884B1B6803F0F002302A03D0BA
:10F3900003F0E003402B90D1844B854A1B6803F0B7
:10F3A0004F03136089E74FF08052824BD2F8041468
:10F3B000C3F82015D2F80814C3F82415D2F80C1499
:10F3C000C3F82815D2F81014C3F82C15D2F8141469
:10F3D000C3F83015D2F81814C3F83415D2F81C1439
:10F3E000C3F84015D2F82014C3F84415D2F82414F9
:10F3F000C3F84815D2F82814C3F84C15D2F82C14C9
:10F40000C3F85015D2F83014C3F85415D2F8341498
:10F41000C3F86015D2F83814C3F86415D2F83C1458
:10F42000C3F86815D2F840145B48C3F86C15D2F8DD
:10F4300044140278C3F87015062A7FF43EAF5E4B81
:10F440001B681A077FF439AF9CE75C4E5C4C5D4942
:10F450005D4B0527012500203F22376025600860AD
:10F460001A604D4B1B78062B7FF427AF524B1B685D
:10F4700019077FF422AF7FE7474B544A1B780321DB
:10F48000062B11607FF419AF4B4B1B6818077FF4F4
:10F4900014AF6BE74FF080430022C3F80C21C3F890
:10F4A0001021C3F838253C4B1B78062B7FF405AFA1
:10F4B000414B1B681C077FF400AF50E74449364AB4
:10F4C000CB68127823F08073062ACB607FF4F5AE08
:10F4D000394B1B681D077FF4F0AE34E73D4B2E4AD5
:10F4E0001B6812783C49C3F34233062A0B60B8D13B
:10F4F000314B1B681E077FF4E0AE1DE7264B374AF1
:10F500001B7837491160062B7FF4D7AE2A4B1B6856
:10F510001F077FF4D2AE03E7324B1F4A1B681278F5
:10F520003149C3F30423062A0B60BCD1224B1B686C
:10F530001B073FF4EEAEC0E62C4B0122C3F80425B6
:10F54000D3F80024002AFBD04FF0102315222749BE
:10F55000C3F80022D1F80034002BFBD04FF010226A
:10F560001521224BC2F80412D3F80024002AFBD044
:10F5700000221E49C3F80425D1F80034002BFBD02B
:10F58000BFF34F8F05491A4BCA6802F4E062134378
:10F59000CB60BFF34F8FFEE7E00F00F000ED00E01F
:10F5A000B02000200090D003E80F00F058020010B7
:10F5B000E40E004000C00040E40F00F01056004090
:10F5C000885600401856004014560040A0050040E0
:10F5D000F0ED00E0440200103C05004074C007401C
:10F5E0000DF0ADBA240300104035014000E00140A9
:10F5F0000400FA0576DF704777DF70477ADF7047DF
:10F600007CDF7047A8DF704769DF704766DF7047AF
:10F6100032DF70473EDF704708F09CBD10B50446EE
:10F620000AF07EFE2046BDE8104003F01BB900BF83
:10F6300010B502884349044684B003200BF0A6FFAE
:10F64000204603F0A1FA204606F0F6FA204603F021
:10F650003FFA204602F03EF92388112B55D027D9D6
:10F66000512B3BD0562B1AD03B2B18D0204603F001
:10F6700099F82146344804F059FB2146334800F0FC
:10F68000FDFB2146324800F015FB2146314800F0D1
:10F6900057FB2146304800F0E3FB04B010BD1321B6
:10F6A000A088FFF7A7FF0028E0D008F053FDDDE7B2
:10F6B000012B40D0102BD9D1032028490BF00EFF8D
:10F6C000072001F0CDFE08B108F044FD244BA288CC
:10F6D0001A8000F09DFE00F095FEC7E7A379002B8D
:10F6E000C4D0A27B043A022AC0D8022B18BF01233F
:10F6F0004FF4C1726946A0888DF80030ADF804203F
:10F70000FFF780FF0028B1D0CFE7032015490BF0A9
:10F71000E5FE002001F0A4FE08B108F01BFD104B2F
:10F720004FF6FF721A8000F083FE00F05BFE0E4B76
:10F7300000221A709AE70021A088FFF767FF0028CF
:10F7400094D0B2E764DD02004C2100206821002043
:10F75000802100208C210020742100209CDD0200EB
:10F76000B820002080DD02004821002008B5037881
:10F7700003B108BD054B3B211888FFF73BFF00286C
:10F78000F7D0BDE8084008F0E5BC00BFB820002075
:10F79000072808B51CD00A280ED0042800D008BDC0
:10F7A000144B13211888FFF725FF30F00803F6D01B
:10F7B000BDE8084008F0CEBC002001F051FEB0B911
:10F7C00002F076F880B9FFF723FF0028F0D108BDDA
:10F7D000084B1A884FF6FF739A42E0D103F072F893
:10F7E00030F00803DBD0E3E708F0B4FCEBE708F007
:10F7F000B1FCE5E7B820002010B5037884B00446DA
:10F800000E2B0FD8DFE803F0220E270E3315100E53
:10F810001E0E1008100E3B00032002F0A3FF08B1DB
:10F8200008F098FC04B010BD80680028F8D104B03E
:10F8300010BD0AF015FB0E280346F3D033F0080381
:10F84000F0D0EDE700690028ECD0E9E70D4903208E
:10F850000BF044FEE6E7408803F02AFA227A638838
:10F8600009490092024603200BF054FFDAE704A98D
:10F87000002301F8043D408806F05EFAD2E706F066
:10F880005DFACFE718DE02004CDE020008B548B191
:10F89000032806D10D490BF021FE022001F0E0FD06
:10F8A00050B908BD01F0DCFD50B902F001F850B9C3
:10F8B000FFF7AEFE0028F4D0BDE8084008F04ABCCF
:10F8C00008F048FCF1E708F045FCF1E7F8DD02003C
:10F8D000064B074A18884FF6FF73002198421170B3
:10F8E00002D01321FFF786BE704700BFB82000206A
:10F8F0004821002080B5A8B000F07CFF00F08AFF0E
:10F900000023A34A184613700BF0CCFD08B108F091
:10F9100021FC00F031FD9F49032001F037FF08B1C1
:10F9200008F018FC19A9002002F02CF808B108F022
:10F9300011FC994B994918680290002302A85022A3
:10F940009DF864600CF0CAF908B108F003FC28AC1B
:10F95000002344F8783D20460CF036FA08B108F050
:10F96000F9FB0C22002119A80DF0FAFE0F230A9AC8
:10F970008DF8643019A90120FFF746FE08B108F0A0
:10F98000E9FB0C22002119A80DF0EAFE0121002359
:10F990008DF864100A9A8DF8653019A940208DF809
:10F9A0006630FFF731FE08B108F0D4FB20460CF0BA
:10F9B00015FA08B108F0CEFB79480CF0D9F908B176
:10F9C00008F0C8FB77480CF0DDF908B108F0C2FB7D
:10F9D0009DF828307448012262F3030362F3071391
:10F9E0008DF828300DF00EFF6F4982B22046FFF7E8
:10F9F00007FE08B108F0AEFB0822002119A80DF09F
:10FA0000AFFE6A4B199319A84FF07A731A93FFF758
:10FA1000F5FD08B108F09EFB0021654804F06AF985
:10FA200008B108F097FB634800F05AFA624800F00A
:10FA3000FFFA6248002500F059FB614800F0CAFB5C
:10FA40003C22294620460DF08BFE0222062001278B
:10FA50005C4B8DF82820294620228DF82B0002A827
:10FA60000F938DF82A50ADF838700DF079FE4FF4F1
:10FA7000967329463C2219A806938DF80B700795BA
:10FA80000DF06EFE204600954F4C504BADF8747053
:10FA900002AA19A91E9402F0A5FD08B108F05AFBAC
:10FAA0001C22002119A80DF05BFE4FF490270023C3
:10FAB0004FF4702503244649464A199319A8ADF816
:10FAC00072308DF874301A971B958DF870401E9126
:10FAD0001F9202F0C3FF08B108F03CFB06F0BEF82D
:10FAE00008B108F037FB0522002119A80DF038FEF7
:10FAF0009DF864309DF867109DF8682043F001037D
:10FB0000032003F0F10360F306136FF3C71341F012
:10FB1000030142F003020725102419A88DF8643070
:10FB20008DF867108DF868208DF865508DF8664067
:10FB300006F0F8F808B108F00DFB274806F0D6F8F3
:10FB400008B108F007FB022E19D1244903200BF05D
:10FB5000C5FC06F0FBF8B8B96FF01D00FFF74CFDCF
:10FB60001F4903200BF0BAFC0BF0B4FE0028FBD1B8
:10FB7000FFF750FD0028F7D008F0ECFAF4E7032077
:10FB800002F0F0FD0028E7D008F0E4FAE4E700BF57
:10FB90004821002091F7010060DD0200F8200020DC
:10FBA00031F601001DF60100B4DD02005000A00096
:10FBB0004C210020802100208C2100207421002075
:10FBC00068210020B4200020BC2000208DF8010016
:10FBD0006DF7010019F60100F9F70100C4DD02001C
:10FBE000DCDD0200A0DF7047A2DF704762DF7047F4
:10FBF000F0B52E4B95B09A68019105465968186882
:10FC0000DB6804AC0FC40DF1060104A8FFF7EEFF9A
:10FC1000002848D11C2200210DA80DF0A1FD9DF85F
:10FC2000343003AC03F0FD0343F00803032200214A
:10FC300020468DF834300DF093FD9DF80C209DF892
:10FC40000D309DF80E60012161F3030261F307128C
:10FC500061F3030361F3071361F342068DF80C208F
:10FC60000021142208A88DF80D308DF80E6014279D
:10FC70000DF076FD00260DF1040E08AA0DA92B1D2E
:10FC800028880994CDF820E0ADF82C70ADF82860F4
:10FC9000FFF7AAFF08B108F05DFA054903200BF051
:10FCA0001DFC15B0F0BD08F055FAB3E798DE020070
:10FCB0003CDF02000B88112B18D0502B05D0102BE5
:10FCC00000D070478B88438070470A8942F62B2307
:10FCD0009A42F6D1154B1B7863B110B50C46032040
:10FCE00013490BF0FBFB228A32B910BD4FF6FF73AC
:10FCF00043807047FFF7ECBD0E4903200BF046FC34
:10FD000022890D4903200BF041FCA28AE37CA47CEC
:10FD10000A4943EA022344EA0324224603200BF063
:10FD200035FC2046BDE8104000F088BB482100208B
:10FD300050E0020068E0020074E0020084E002008B
:10FD40000B88112B40D0502B10B40C4609D0102B2F
:10FD500002D05DF8044B70478B8843805DF8044BFC
:10FD600070470B89113B152BF3D801A252F823F0F1
:10FD7000E1FD0100F1FD010001FE010053FD010064
:10FD800053FD010053FD010053FD010053FD01002F
:10FD900053FD010053FD010053FD010053FD01001F
:10FDA00053FD010053FD010053FD010053FD01000F
:10FDB00011FE010021FE010031FE010041FE0100A3
:10FDC00051FE0100D1FD01004FF6FF7343807047E3
:10FDD00004F112000822097C5DF8044B00F046BBD8
:10FDE00004F112000022097C5DF8044B00F03EBBD8
:10FDF00004F112000122097C5DF8044B00F036BBCF
:10FE000004F112000222097C5DF8044B00F02EBBC5
:10FE100004F112000322097C5DF8044B00F026BBBC
:10FE200004F112000422097C5DF8044B00F01EBBB3
:10FE300004F112000522097C5DF8044B00F016BBAA
:10FE400004F112000622097C5DF8044B00F00EBBA1
:10FE500004F112000722097C5DF8044B00F006BB98
:10FE60000B88102B06D0112B03D14FF6FF73438064
:10FE7000704770478B884380704700BF0B88112BF9
:10FE80001BD0502B05D0102B00D070478B8843809F
:10FE900070470A894BF6EF639A42F6D14B8A83B9D1
:10FEA0008A8A40F201239A42EFD1CB8A022BECD10D
:10FEB0000A4B01221A7000F0BBBA4FF6FF73438061
:10FEC000704740F206629342DFD10B7D062BDCD1F6
:10FED000024B00221A70FFF7FBBC00BF4821002034
:10FEE000F0B54C4C99B06168E368A268064620689A
:10FEF00004AD0FC541F605030DF1060104A8ADF8E8
:10FF00000430FFF773FE002840F08180324601A9DB
:10FF10000120FFF767FE08B108F01CF94FF6FF73E8
:10FF200073803D4903200BF0D9FABDF804203B490A
:10FF300003200BF02BFB9DF80620394903200BF022
:10FF400025FB3288374903200BF020FB364903207C
:10FF50000BF0C4FA20686168E368A26808AC0FC4BB
:10FF600042F62B230DF10A0108A8ADF80830FFF77F
:10FF70003DFE002848D11C22002111A80DF0F0FB05
:10FF80009DF84430032243F00A03002168468DF8AF
:10FF900044300DF0E5FB9DF800209DF801309DF800
:10FFA0000240012161F3030261F3071261F342048D
:10FFB00061F3030361F307138DF80020002114227D
:10FFC0008DF802400CA818AC8DF801300DF0C8FB7C
:10FFD0000023042544F8543D02AF0CAA11A973195B
:10FFE0003088CDF834D010940C97ADF83C50ADF873
:10FFF0003850FFF7F9FD08B108F0ACF80B490320C1
:020000022000DC
:100000000BF06CFA19B0F0BD08F0A4F8B3E708F0F3
:10001000A1F87BE798DE020070DF020098DF0200A3
:10002000B8DF0200DCDF0200FCDF020020E002009B
:1000300030B5284B87B059689A6804461868DB6861
:1000400002AD0FC510230DF1020102A8ADF800307A
:10005000FFF7CCFD00283AD1224669460120FFF780
:10006000C1FD08B108F076F84FF6FF7363801A49B6
:1000700003200BF033FABDF80020184903200BF0E1
:1000800085FA9DF80220164903200BF07FFA22889A
:10009000144903200BF07AFA134903200BF01EFADF
:1000A0001123ADF8043001992046FFF7A1FD12237A
:1000B000ADF8043001992046FFF79AFD1323ADF8FF
:1000C000043020460199FFF793FD07B030BD08F0DA
:1000D00041F8C1E798DE0200A0E00200C8E002009B
:1000E000E8E002000CE102002CE1020030B5334BE5
:1000F00087B059689A6804461868DB6802AD0FC576
:1001000020230DF1020102A8ADF80030FFF76EFDCB
:1001100000284FD1224669460120FFF763FD08B150
:1001200008F018F84FF6FF736380254903200BF0A1
:10013000D5F9BDF80020234903200BF027FA9DF8DC
:100140000220214903200BF021FA22881F490320B5
:100150000BF01CFA1E4903200BF0C0F92123ADF867
:10016000043001992046FFF743FD2223ADF8043007
:1001700001992046FFF73CFD2323ADF80430019997
:100180002046FFF735FD2423ADF8043001992046C1
:10019000FFF72EFD2523ADF8043001992046FFF727
:1001A00027FD2623ADF8043020460199FFF720FDF6
:1001B00007B030BD07F0CEFFACE700BF98DE02000D
:1001C00010DF0200C8E00200E8E002000CE10200DB
:1001D0002CE10200F0B54D4C9BB06168E368A26869
:1001E0000646206806AD0FC54DF6AD630DF10A0158
:1001F00006A8ADF80830FFF7F9FC002840F083802E
:10020000324602A90120FFF7EDFC08B107F0A2FF7A
:100210004FF6FF7373803E4903200BF05FF9BDF882
:1002200008203C4903200BF0B1F99DF80A203A4917
:1002300003200BF0ABF9394903200BF04FF920688C
:100240006168E368A2680AAC0FC44BF6EF630DF176
:100250000E010AA8ADF80C30FFF7C8FC00284FD1FA
:100260001C22002113A80DF07BFA9DF84C3001AC44
:1002700003F0FD0343F008030322002120468DF81C
:100280004C300DF06DFA9DF804209DF805309DF876
:100290000650012161F3030261F3071261F30303C6
:1002A00061F3071361F342058DF804200021142245
:1002B0000EA88DF805308DF8065000270DF050FA85
:1002C00006250DF1100E0DF10C0C0EAA13A9331D0D
:1002D00030880F94CDF848E0ADF814700497CDF84D
:1002E00038C0ADF84450ADF84050FFF77DFC08B180
:1002F00007F030FF0A4903200BF0F0F81BB0F0BD07
:1003000007F028FFACE707F025FF79E798DE020049
:1003100070DF020098DF0200E8E00200A8DE0200C1
:10032000D4DE020000F076BA08B5FFF7D1FA024B2E
:1003300000221A7008BD00BF4821002010B50B4BE9
:100340000B4C1A6882B0013218461A600DF0E0F9C1
:1003500001684368826820600091032005490BF022
:10036000D9F902B0BDE8104000F09EBAD8210020B3
:10037000FC21002054E1020011481249124A08B53C
:10038000FF2303700B70137008F0AEFAA0B90F4A88
:100390000F48012108F06AFB0E4A0F48012108F0BE
:1003A00065FB0E4A0E48012108F060FB00B908BD4C
:1003B000BDE8084007F0CEBE07F0CCFEE7E700BF7F
:1003C000C3250020C4250020C52500203D030200D0
:1003D00050E102002903020068E102002503020047
:1003E0004CE1020008B500224FF47021044808F0E7
:1003F0004FFB00B908BDBDE8084007F0ABBE00BF29
:1004000098210020014808F099BB00BF98210020E6
:1004100008B500224FF48031044808F039FB00B9D8
:1004200008BDBDE8084007F095BE00BFDC210020F4
:10043000014808F083BB00BFDC21002010B5044652
:10044000084808F07BFB084B06481C6000224FF46C
:10045000004108F01DFB00B910BDBDE8104007F0D9
:1004600079BE00BFB8210020D8210020364B1B7870
:1004700073B12DE9F04F83B0082A06D8DFE802F007
:10048000510A434547494B4D4F0003B0BDE8F08F3B
:10049000FFF71EBA2D4D0029F7D095F86430632B75
:1004A000F3D8012491460F468046A2460026DFF885
:1004B000C0B018E0032836D185F865A0EE54CDF819
:1004C000049095F86620009259462A460BF090F960
:1004D00095F866309BBBA742D7D995F86430632B5B
:1004E000D3D80134E4B2621ED2B218F80200022856
:1004F000E0D1A74285F8646085F8656085F866609C
:10050000C3D90023EDE7124DC5E7124DC3E7124DE5
:10051000C1E7124DBFE7124DBDE7124DBBE7124DCB
:10052000B9E7124DB7E7EA5C824218BFE85403F11D
:10053000010318BF85F866A085F86430CBE748460C
:1005400000F016FCC7E700BF48210020D824002097
:100550000824002038230020A0230020402500206C
:10056000D0220020682200200022002070240020D9
:100570006CE10200000000002DE9F041744B754D64
:1005800018685968DFF8F0E1734F84B002AB0024BB
:1005900003C30126C020019400964FF0800C23462F
:1005A00032468EF866408EF8654002A94FF0400E44
:1005B00085F8664085F8654087F8664087F86540AD
:1005C000ADF80C006548ADF808C0ADF80EE00AF0D3
:1005D00007FA234632460194009602A94FF4860694
:1005E0005F4C5E48029603940AF0FAF995F864307D
:1005F0005C492B44032013F8016CA6F13004E4B2EB
:100600002246013C0AF0C2FF092C06D8DFE804F0BC
:1006100063696F757B81878D0593534B534A1978B6
:100620001278534B0193002300934C48514C802384
:100630000AF07AFA95F86420DFF8B0E100942A44D1
:100640004FF001080021CDF80480424B02F8011C54
:100650004248CDF808E002A94FF6FF720AF04AFBC3
:1006600095F86430DFF888E100941D44CDF80480EB
:10067000414B05F8016C4FF6FF7202A93748CDF8DF
:1006800008E00AF037FB97F864000CF053FC2EA347
:10069000D3E900230CF0C6FD02460B460020374983
:1006A0000CF07AFC0CF05EFC82B2B2F5A07F88BF41
:1006B00000220094ADF80820CDF8048002A943245C
:1006C000254B2648ADF80A404FF6FF720AF012FBA0
:1006D00004B0BDE8F0812A4B2A4A197812782A4BD7
:1006E000A0E72A4B2A4A197812782A4B9AE72A4B14
:1006F0002A4A197812782A4B94E72A4B2A4A197801
:1007000012782A4B8EE72A4B2A4A197812782A4BFC
:1007100088E72A4B2A4A197812782A4B82E72A4B13
:100720002A4A197812782A4B7CE72A4B2A4A1978E8
:1007300012782A4B76E72A4B2A4A197812782A4BE4
:1007400070E700BFAFF300809A9999999999094091
:10075000ACE102007024002008240020BCE5020067
:1007600040010E008CE20200792603007826030087
:10077000B02403007CFB0200D82400200000644069
:100780002D2003002C2003003C1E0300D521030074
:10079000D421030030200300D1290300D029030015
:1007A00020280300812D0300802D0300A02B0300CF
:1007B0009D2B03009C2B0300D4290300E52E03008E
:1007C000E42E0300842D0300AD240300AC240300B9
:1007D0000C2303000923030008230300D82103008E
:1007E0001D2803001C2803007C260300C800080005
:1007F000C800180008B506480AF03EF808B107F02E
:10080000A9FC01210248BDE808400AF055BA00BF22
:10081000BCE5020008B5002119480AF075F9FFF798
:10082000F1FD6722002117480CF09AFF6722002192
:1008300015480CF095FF6722002114480CF090FF3A
:100840006722002112480CF08BFF6722002111481B
:100850000CF086FF672200210F480CF081FF672211
:1008600000210E480CF07CFF672200210C480CF0A0
:1008700077FF672200210B48BDE808400CF070BFED
:10088000BCE502007024002008240020D8240020A9
:1008900038230020A023002040250020D022002063
:1008A00068220020002200202DE9F043B14CDFF83F
:1008B0004483236898F800209968AF4E914285B030
:1008C00000F016813068716802AF002301223D46B6
:1008D00003C71C278020019329460092ADF80A70B7
:1008E000ADF80C002427A548ADF80E700AF078F892
:1008F0002368A3499A68A3480CF03AFE2368DFF8FE
:10090000F892596899F8002091421BD030687168BC
:100910002F4603C7002301221C2180208DE80C00F4
:10092000ADF80A10ADF80C00294624279348ADF81D
:100930000E700AF055F8236891495A6892480CF0F5
:1009400017FE2368914F9A6939788A4235D0DFF8CB
:1009500048E28F4800218EF800100170062A00F24C
:10096000A880DFE812F0D600DC00E200E800A10079
:10097000EE00D000874988480CF00FFE2368DA6843
:100980007F4983480CF0F4FD814983480CF005FE53
:1009900030687168AE46AEE8030000230122802073
:1009A0008DE80C004FF0400EADF80C00294673485E
:1009B000ADF80EE00AF014F8236878487849002270
:1009C00002709B680A70092B40F399806D49734847
:1009D0000CF0E3FD734971480CF0DFFD23685B68A0
:1009E000092B40F3878068496C480CF0D6FD2368DA
:1009F00063491A686C480CF0BBFD23681B68092B1F
:100A000003DC6A4966480CF0C8FD674964480CF08D
:100A1000C4FD306871682A4603C2012600234FF0E6
:100A20005A0E1C21262001933246ADF808E0ADF89D
:100A30000A104FF0240E2946ADF80C0000964F48DE
:100A4000ADF80EE009F0CCFF594B5A4A02928DE8FE
:100A500048002946514B49484FF6FF720AF04AF9BF
:100A6000554B564A02928DE8480029464C4B434864
:100A70004FF6FF720AF03EF9514B524A0093294655
:100A800002920196444B3D484FF6FF720AF032F94C
:100A9000236859689A689B6989F8001088F80020D3
:100AA0003B7005B0BDE8F08347493B480CF075FD4D
:100AB00023681A690B2A3FF662AF01A151F822F0B0
:100AC0004F0B02005B0B0200090C0200150C020028
:100AD000210C02002D0C0200390C0200450C020012
:100AE000510C020075090200670B0200FD0B0200A9
:100AF00002AD04E72D4929480CF04FFD73E7334957
:100B00000CF04BFD62E7324923480CF046FD2368A8
:100B1000CFE7304920480CF040FD2368C9E72E4953
:100B20001D480CF03AFD2368C3E72C491A480CF025
:100B300034FD2368BDE72A4917480CF02EFD2368D1
:100B4000B7E7284914480CF028FD2368B1E7264987
:100B500011480CF022FD236811E724490E480CF0DF
:100B60001CFD23680BE722490B480CF016FD236897
:100B700005E700BFFC210020ACE10200BCE502005B
:100B8000B4E10200BC250020C0250020C5250020BE
:100B9000A825002060E20200FC250020AC250020F2
:100BA000B825002084E20200F825002088E2020037
:100BB000301E030003001C00BCF402005A00290090
:100BC0007CFB020003000500E8E10200D8E102001E
:100BD00000E20200B8E10200C4E10200D0E102003C
:100BE000DCE10200F4E102000CE2020018E2020083
:100BF0006CE20200C3250020C425002017491848D4
:100C00000CF0CBFC2368BAE6164915480CF0C5FC7D
:100C10002368B4E6144912480CF0BFFC2368AEE622
:100C200012490F480CF0B9FC2368A8E610490C489B
:100C30000CF0B3FC2368A2E60E4909480CF0ADFCA9
:100C400023689CE60C4906480CF0A7FC236896E64E
:100C50000A4903480CF0A1FC236890E678E2020000
:100C6000FC25002024E202002CE2020034E2020013
:100C70003CE2020044E202004CE2020054E20200C4
:100C8000314A92F86530002B5DD0304B93F86510F7
:100C9000002958D0F0B52E4D95F8651085B0002983
:100CA0004FD092F8661031B993F8661019B995F8DB
:100CB0006610002945D0274E2449274F002430468E
:100CC00082F8664083F8664082F8654083F86540A4
:100CD00085F8664085F8654034700CF05EFC1F496D
:100CE00030460CF05AFC184930460CF056FC1C4BB0
:100CF00001941868596802AA03C252200125ADF870
:100D00000A003220234602A92A46ADF80E000095BB
:100D1000144809F065FE144A0292334602A94FF6C0
:100D2000FF72019500970F4809F0E4FF0F4A029205
:100D30000195009702A9064B0A484FF6FF7209F089
:100D4000D9FF05B0F0BD7047D022002068220020F6
:100D500000220020C8250020BCF4020008E20200A6
:100D6000ACE10200BCE502000800540008006A0083
:100D7000F0B585B0082808D8DFE800F00909096057
:100D80008E2505050500FFF77BFF05B0F0BD614B23
:100D900093F86520002AF8D05F4A92F86510002980
:100DA000F3D05E4991F865000028EED093F86630E4
:100DB00033B992F866301BB991F86630002BE4D055
:100DC000FFF7DAFBE1E7564C94F86530002BDCD0F6
:100DD00094F86630002BD8D0524B1868596802AB93
:100DE00003C300250126842001952B4602A9009605
:100DF000324684F86650ADF80A001A274A48ADF822
:100E00000E7009F0EDFD4FF4040301950095324694
:100E100002A90293454D444803954FF6FF7309F02C
:100E2000DFFD434A0092434A0292019602A92346FB
:100E30004FF6FF723C4809F05DFFA6E73E4C94F880
:100E40006530002BA1D094F86630002B9DD0354B37
:100E50001868596802AB03C301250026B820019623
:100E600002A900952A46ADF80A00382784F8666082
:100E70004FF6FF732C48ADF80E7009F0B1FD2C4A07
:100E800000922E4A0292019502A923464FF6FF7264
:100E9000254809F02FFF78E7294C94F86530002B9E
:100EA0003FF473AF94F86630002B3FF46EAF1D4BE8
:100EB0001868596802AB03C3002501269E200195DE
:100EC0002B4602A90096324684F86650ADF80A0017
:100ED0001A271548ADF80E7009F082FD4FF404038F
:100EE00001950095324602A90293104D0E480395D4
:100EF0004FF6FF7309F074FD0D4A0092114A0292F9
:100F0000019602A923464FF6FF72074809F0F2FE48
:100F10003BE700BF70240020D824002008240020D4
:100F200040250020ACE10200BCE502004001350094
:100F3000BCF4020008008700382300200800BC0031
:100F4000A023002008009F00054A4FF0A043105C3A
:100F5000D3F8043523FA00F0C04300F001007047D5
:100F6000ACE20200044B195C4FF0A04201238B401D
:100F7000C2F80C35704700BFACE20200044B195CAC
:100F80004FF0A04201238B40C2F80835704700BFE4
:100F9000ACE202004FF0A04310B44FF480204FF4B5
:100FA00000344FF400214FF48012C3F80845C3F811
:100FB00008055DF8044BC3F80815C3F80825704709
:100FC0004FF0A04310B44FF480204FF400344FF49E
:100FD00000214FF48012C3F80C45C3F80C055DF8EE
:100FE000044BC3F80C15C3F80C257047074B4FF0A2
:100FF000A041185CD1F804350122824022EA0300A6
:101000001340C1F80805C1F80C357047ACE2020086
:1010100030B44FF0A04303224FF400354FF4802446
:101020004FF400204FF48011C3F84427C3F8482739
:10103000C3F84C27C3F85027C3F80855C3F8084530
:10104000C3F8080530BCC3F808157047054A4FF0CF
:10105000A043105CD3F8103523FA00F0C04300F031
:1010600001007047A8E202000D2809D00E2809D01F
:101070000F2809D010280CBF03204FF0FF30704715
:10108000002070470120704702207047014B185C18
:10109000704700BFA8E202000220FFF7A7BF00BF11
:1010A0002DE9F0470D460646FFF7DEFF03281ED860
:1010B000012D04461FD00ED3022D1AD11C4B00EB7C
:1010C00040041C44657895B11A4B1B687BB12846D7
:1010D000BDE8F0471847184807F030FD144B174A91
:1010E00004EB44010B44125D9D78AA42EBD0BDE8AD
:1010F000F087BDE8F0870E4F4FEA400808EB000389
:10110000FA18FD5C53782BB9A04447440B4BBA78CE
:101110001A55D8E7DFF8289007484A464FF40041AF
:1011200007F0B6FC0028EFD189F80060ECE700BFBB
:101130006026002094260020402600209C260020C7
:101140001C26002010B50078FFF78EFF03280BD86F
:10115000064B00EB40001844407828B1044B1B6854
:1011600013B1BDE81040184710BD00BF6026002035
:1011700094260020B34B1B68DB0700D4704770B582
:10118000B14EB24D33782C78FBB9172C1CD8DFE860
:1011900014F0F1001401140163007600830096003E
:1011A0005D0039002C0039002C00A300A800A80025
:1011B000A800A800A800CE00DE000101460018002B
:1011C0001800FFF7FDFE2C7070BDA14B1B780020AE
:1011D0003070002B00F00581FFF7D0FE0120FFF7F3
:1011E000CDFE0320FFF7CAFECFE701231846337078
:1011F000FFF7FCFE00224FF480419648BDE87040A6
:1012000007F046BC012318463370FFF7EFFE0022BB
:1012100040F6CD418F48BDE8704007F039BC8C4B9B
:101220001B78002B00F0FE800020FFF7A7FE0120B6
:10123000FFF7A4FE0320FFF7A1FE0020FFF792FEB8
:101240000120FFF78FFE15232B7070BD0020FFF7E4
:1012500089FE07232B7070BD0020FFF775FE002864
:1012600000F0D3800020FFF789FE46F26661032379
:101270002B7000227748BDE8704007F009BC0020C1
:10128000FFF762FE002800F0C5800020FFF776FE21
:101290004FF400310423EBE70020FFF755FE002850
:1012A00000F0BD800020FFF769FE05232B700022AF
:1012B00041F69A116748BDE8704007F0E9BB00208D
:1012C000FFF794FE06232B70002240F6CD416148C3
:1012D000BDE8704007F0DCBBFFF772FE0C232B70FB
:1012E00070BD5D4807F02AFCD4F1110405467BD09F
:1012F000002879D1012C13D0C82303FB04F44FF448
:10130000FA704FF400430021C3FB04014FF47A72DA
:1013100000230CF03DF82A4601464F4807F0B8FB81
:101320000220FFF71FFE4A4B01221A7070BD484B86
:101330001B78002B79D00020FFF720FE0120FFF75B
:101340001DFE0320FFF71AFE12232B7070BD404BC9
:101350001B78002B6FD00020FFF710FE0120FFF755
:101360000DFE0320FFF70AFE0020FFF7FBFD13230D
:101370002B7070BD364B1B78002B59D00020FFF727
:10138000FDFD0120FFF7FAFD0320FFF7F7FD002325
:101390002B7070BD2E4B1B78002B4FD00020FFF719
:1013A000EDFD0120FFF7EAFD0320FFF7E7FD012037
:1013B000FFF7D8FD14232B7070BD0020FFF7C4FD8C
:1013C000C8B10020FFF7DAFD022C4EF2666118BFAB
:1013D0004FF400312C7000221E48BDE8704007F029
:1013E00057BBFFF7D7FDD0E60220FFF7C7FD184B2C
:1013F00000221A7070BDFFF7B5FD43F2333141F69C
:101400009A13022C08BF1946E4E7FFF7ABFD41F63B
:101410009A112CE7FFF7A6FD43F233313AE7FFF7C5
:10142000A1FD42E7FFF7B6FD07E7FFF7B3FD8BE746
:10143000FFF7B0FDABE7FFF7ADFD95E7FFF7AAFDBE
:10144000B5E700BF6C2600207026002098260020FB
:101450001D2600207426002020260020FFF7F6BD60
:1014600038B5C44B1C6814F0010401D1204638BDC6
:10147000C14C23780546E3B9172D00F27881DFE8E7
:1014800015F00B013101310169007D009100A500CB
:101490005B003500280035002800B300BA00BA0010
:1014A000BA00BA00BA00E300F6001C014200630073
:1014B0006300B24B1B7800202070002B00F02781C6
:1014C000FFF75CFD0120FFF759FD0320FFF756FDF4
:1014D000D2E7012318462370FFF788FD00224FF45E
:1014E0008041A748BDE8384007F0D2BA012318462A
:1014F0002370FFF77BFD002240F6CD41A048BDE8F8
:10150000384007F0C5BA9D4B1B78002B00F02081B6
:101510000020FFF733FD0120FFF730FD0320FFF728
:101520002DFD0020FFF71EFD0120FFF71BFD954B51
:1015300015221A70002499E70020FFF713FD914B44
:1015400007221A70002491E7FFF73AFD8D4B002423
:101550001D708BE70020FFF7F7FC002800F0E1800A
:101560000020FFF70BFD46F26661864B844803249A
:101570001C700022BDE8384007F08ABA0020FFF74F
:10158000E3FC002800F0DC800020FFF7F7FC4FF4BC
:1015900000317C4B7A4804241C700022BDE838409E
:1015A00007F076BA0020FFF7CFFC002800F0CD80CE
:1015B0000020FFF7E3FC734B714805241C700022E8
:1015C00041F69A11BDE8384007F062BA0020FFF7F3
:1015D0000DFD6C4B6A4806241C70002240F6CD417C
:1015E000BDE8384007F054BAFFF7EAFC654B0C221F
:1015F0001A7000243AE7644807F0A0FA0446D5F1CF
:10160000110000F08780002C40F08480012814D065
:10161000C82505FB00F54FF400434FF4FA70002194
:10162000C3FB05014FF47A7200230BF0B1FE224692
:101630000146554807F02CFA04460220FFF792FCB9
:101640004E4B01221A7011E74C4B1B78002B00F017
:1016500082800020FFF792FC0120FFF78FFC03201F
:10166000FFF78CFC474B12221A700024FEE6434B16
:101670001B78002B75D00020FFF780FC0120FFF7BE
:101680007DFC0320FFF77AFC0020FFF76BFC3D4B4D
:1016900013221A700024E9E6384B1B78002B5DD02A
:1016A0000020FFF76BFC0120FFF768FC0320FFF729
:1016B00065FC344B00241C70D8E6304B1B78002BA3
:1016C00052D00020FFF75AFC0120FFF757FC0320FF
:1016D000FFF754FC0120FFF745FC2A4B14221A7037
:1016E0000024C3E60020FFF72FFCF8B10020FFF72D
:1016F00045FC022D4EF2666118BF4FF40031214BBC
:101700001F481D700022BDE8384007F0C1B9FFF73F
:1017100041FCB1E60220FFF731FC184B00221A70A1
:10172000A4E6FFF71FFC41F69A111EE7FFF71AFC2B
:1017300043F2333141F69A13022D08BF1946DEE712
:10174000FFF710FC43F2333123E7FFF70BFC32E7DE
:10175000FFF720FCE5E6FFF71DFC83E7FFF71AFC27
:10176000A7E7FFF717FC8FE7FFF714FCB2E70024A9
:101770007CE600BF6C260020702600201D2600207D
:10178000742600209826002020260020F0B5204A4C
:10179000204B1060044610F0020083B0196013D093
:1017A0001D4B1E480E210F2710261125197040F2DF
:1017B00066620421DF709E715D7206F05BFCA0B171
:1017C000E3071DD403B0F0BDE20719D4144A15484D
:1017D000002107F04BF90028F4D1134A13480121E6
:1017E00003B0BDE8F04007F041B906F09DFC0028C9
:1017F000E6D101460E4A0F4807F038F9E10703D554
:101800000190FFF705FC01980028DFD003B0F0BD80
:101810006C2600209426002060260020B0E2020002
:1018200075110200D8E2020099100200D0E2020015
:1018300045110200D4E20200032801D907207047B5
:10184000012A12D0012917D008D30229F6D10D4B55
:1018500000EB4000034400205A707047094B00EB36
:101860004000034400209A707047012901D00022F3
:10187000E8E700F10E02D2B200EB4003014900207C
:10188000CA5470476026002008B5FFF7FFFB8000B0
:1018900000F1A0430020D3F8002722F44032C3F81F
:1018A0000027D3F8002742F44032C3F8002708BDD0
:1018B00008B50020FFF7E8FF10B1062800D008BDEA
:1018C0000120FFF7E1FF0028F9D0062808BF00201B
:1018D00008BD00BF0388102B10B508D0112B05D10F
:1018E000264B18680138186038B110BD10BD234C64
:1018F000216881B10131216010BD01220221FFF771
:101900009BFF48B3072827D01D4B1B68002BECD04A
:10191000BDE81040184701220846FFF78DFF48B187
:10192000072807D0164B1B6803B19847216801317F
:10193000216010BD072202210120FFF77DFF08B1C1
:101940000728EFD1042202210020FFF775FF0028AD
:10195000ECD00728E6D1E9E7072202210120FFF7B2
:101960006BFF08B10728CFD1002108460A22FFF7F4
:1019700063FF0028B9D00728C6D110BDA4260020D7
:10198000A0260020194B10B5186031B101200C467B
:10199000FFF764FD30B102232370154B186848B17E
:1019A000002010BDFFF75AFDE8B9114B20701868F0
:1019B0000028F5D101220221FFF73EFF08B10728D8
:1019C000EFD1072202210120FFF736FF08B10728D7
:1019D000E7D1002108460A22FFF72EFF0028DFD0BA
:1019E0000728DED1DCE70B232370D6E7A0260020F2
:1019F000A42600206DDF704772DF704779DF7047E3
:101A00007DDF704764DF70472DE9F04F85B00488B3
:101A1000DDF83880BDF83CA0B8F800500195002CE6
:101A200057D09946002317468B4605461C4603E0CF
:101A30002A880134A24228DD6A6852F82400039003
:101A400000220DF10B0103A8FFF7DCFF064630BBB7
:101A50009DF80B20BA42EBD12BB3B8F80020D31974
:101A600053451BDC4A440DF10B0103A80123FFF78A
:101A7000C9FF98BBB8F800109DF80B200A44A8F8DD
:101A800000202A880134A242D6DC13B3B8F8003013
:101A9000019A013B9B1A9BB2FF2B17D90C263046AB
:101AA00005B0BDE8F08FB8F800305A1C3B44023353
:101AB000534592B2F2DCA8F8002009F802B0B8F859
:101AC0000020013292B2A8F80020CBE709F80230DA
:101AD000E5E70026304605B0BDE8F08F0646304603
:101AE00005B0BDE8F08F00BF2DE9F04790F82D302C
:101AF00017881446002284B005460E462280002B2B
:101B000049D1AA78002A70D1EA78002A2ED16A68D1
:101B1000A2B1D91CB94225D8022192F90020F15472
:101B2000238801339BB20A212380F1542388013397
:101B30009BB22380F2542388013323802B89002B0E
:101B400040F02A812B8A002B40F03F812B8B002B09
:101B500040F054812A6A002A00F0A78021888B1D5A
:101B6000BB4262D90C2004B0BDE8F087D91CB94251
:101B7000F8D80221F154238801339BB2012123803C
:101B8000F15423880B449BB22380F25423880B44E6
:101B90009BB22380BBE7082FE4D902A8FFF72AFFF6
:101BA0000028E0D123880822CA54238801339BB23D
:101BB0001B222380CA542088013080B22080062254
:101BC00008440DF109010BF0ADFD23889DF80820B4
:101BD00006339BB212F0FE0218BF01222380F2549A
:101BE000238801339BB223808BE70433BB42B9D8EF
:101BF00002A8FFF703FF0028B5D12388BDF808200D
:101C00000321F154238801339BB219212380F1541D
:101C1000238801339BB2F1182380F254120A4A70D0
:101C2000238802339BB223806EE71388052B40F292
:101C3000AF806FF4486803EB080080B24FF27D3E3E
:101C4000704540F2A5805088052840F2A1806FF4CD
:101C5000486C84441FFA8CFCF44540F299804FF69E
:101C6000FF7E734504D0704502D0834200F290801D
:101C700005237354238801339BB212212380F1542E
:101C8000238801339BB223801188F1543344090A1D
:101C90005970238802339BB223805288F254334414
:101CA000120A5A70238802332380D5F82480B8F1B1
:101CB000000F30D0B8F8041020888A1C831C13440D
:101CC000BB423FF64FAFFE2A3FF64CAF03313154D3
:101CD000238801339BB2FF222380F25423880133EF
:101CE0009BB22380B8F80020F2543344120A5A7091
:101CF0002088023080B22080B8F804205AB1D8F889
:101D00000810002944D030440BF00CFDB8F8042032
:101D100023881344238095F82C30002B40F08780D3
:101D2000287800283FF41FAF2B88012B30D0238860
:101D30009A1CBA423FF616AF012805D169780231E4
:101D400019448F42FFF40EAF023FFB1A04A99BB265
:101D500021F8083DB018FFF753FE00287FF403AFC9
:101D60002A78022A00F0AF80012A00F0B48008210E
:101D7000FE2B3FF6F7AE22885D1CB5542288013257
:101D800092B22280B1542288013213442380EAE6C1
:101D9000072004B0BDE8F08705F1080802228DE8AD
:101DA0009000404611463346FFF72EFE00287FF490
:101DB000DAAE8DE890004046334610220621FFF748
:101DC00023FE00283FF4BEAECDE605F110088DE8F5
:101DD00090004046334602220321FFF715FE0028FB
:101DE0007FF4C1AE8DE890004046334610220721B3
:101DF000FFF70AFE00283FF4A9AEB4E605F1180883
:101E00008DE890004046334602221421FFF7FCFD86
:101E100000287FF4A8AE8DE890004046334610229B
:101E20001521FFF7F1FD00283FF494AE9BE6D5F8AD
:101E30002880B8F1000FABD0B8F804200232FE2A97
:101E40003FF690AE23884FF000094FF0160A01329A
:101E5000F254238801339BB2238006F803A0238821
:101E600001339BB22380B8F80020F2543344120AA5
:101E70005A70238802339BB22380B8F80410F018FC
:101E80000A4661B1D8F808301946002B80D00BF013
:101E900049FCB8F80420238813449BB2238009F13D
:101EA000010995F82C205FFA89F94A4509EB4908A0
:101EB0007FF636AFAA6A02EB8808B8F8042002322F
:101EC000FE2AC4D94EE6BDF808209342FFF44FAF76
:101ED000134609214CE76A789342FFF448AF134652
:101EE000082145E72DE9F04395B01F230D46ADF8D5
:101EF0000E30044600287ED0C278530777D590F87C
:101F00002D300021ADF80C10002B40F0D3818378E8
:101F10000CAF002B40F00F821946032014AE314461
:101F20005F1C023316FA87F74FF0020E16FA83F69B
:101F300001F840EC83B2012107F8401CADF80C30E9
:101F400006F8402C6668002E00F08780D81C1F28F9
:101F50006FD90C2015B0BDE8F083A76A002F46D0DA
:101F6000BB880233FE2BF4D8BDF80C104FF00008EC
:101F700004AE4FF016091AE00BF0D4FBBDF80C10BC
:101F8000BB8894F82CE0194489B2ADF80C1008F124
:101F900001085FFA88F8F04508EB480380F0E88014
:101FA000A76A07EB8307BB880233FE2BD1D8481CF6
:101FB00014AA0DF1500C0A441CFA80F0013302F807
:101FC000403C00F8409C8A1C3B8892B2B018B35445
:101FD0001B0A43700431BB8889B21A467018ADF8E9
:101FE0000C10002BD3D0BB681946002BC4D107209E
:101FF00015B0BDE8F083ADF80C00ADB1EB78002B67
:10200000F5D128460CA90DF10E02FFF76DFD002851
:10201000EED19DF80E300CAA20469DF80C10FFF76B
:10202000EBFC15B0BDE8F0832B46ADF80E502A4608
:10203000F2E714AF591C9A1C17FA81F13B4417FAC6
:1020400082F296F90060ADF80C0002270A2003F82E
:10205000407C01F8400C02F8406C2389002B40F0D2
:102060008C80238A002B40F0A880238B002B40F02B
:10207000C480226A002A40D0BDF80C30991D1F2967
:102080003FF667AF10880528B1D96FF4486C00EBB4
:102090000C06B6B24FF27D37BE42A8D95688052E3F
:1020A000A5D96FF4486EB6441FFA8EFEBE459ED980
:1020B0004FF6FF77B84203D0BE4201D0B04296D867
:1020C000581C14AE16FA80F01E4412274FF0050E6D
:1020D00006F840EC00F8407C9E1C1088ADF80C100F
:1020E000B1B204AE771870540433000A78709BB212
:1020F0005288F2541E44120A7270676A97B3B88805
:10210000BDF80C30811C9A1C56181F2E3FF621AFCB
:10211000FE293FF61EAF14AE1E44591C0DF1500EA1
:102120001EFA81F1033006F8400CFF2001F8400C44
:10213000398892B204AEB018B154090A4170043320
:10214000BA8898B2ADF80C0062B1B96800293FF4C2
:102150004EAF30440BF0E6FABDF80C30BA881344A9
:10216000ADF80C3094F82CE0BEF1000F7FF4F5AE22
:102170002378002B61D104AC3FE703A904F10807E1
:1021800004AE4FF01F080222009138463346CDF8C6
:1021900004801146FFF738FC00287FF429AF03AB19
:1021A0000093CDF804803346384610220621FFF70D
:1021B0002BFC00283FF455AF1AE703AA04F11007DF
:1021C00004AE4FF01F08009238463346CDF8048025
:1021D00002220321FFF718FC00287FF409AF03ABAC
:1021E0000093CDF804803346384610220721FFF7CC
:1021F0000BFC00283FF439AFFAE603AA04F11807F4
:1022000004AE4FF01F08009238463346CDF80480E4
:1022100002221421FFF7F8FB00287FF4E9AE03AB9C
:102220000093CDF804803346384610221521FFF77D
:10223000EBFB00283FF41DAFDAE62288012A3FF4C9
:10224000D6AEBDF80C20901C1F283FF682AE012BA5
:1022500004D1637803441F2B3FF67BAEC2F11D030C
:1022600014A99BB204AE21F8203D3044FFF7C8FB0F
:1022700000287FF4BDAE2278022A00F08680012A71
:1022800000F08B80ADF830300820FE2B3FF661AEB9
:10229000BDF80C2014AC511CA71814FA81F10232BD
:1022A0001A44013307F8403C3446ADF80C2001F8DD
:1022B000400CA2E60CAF3846FFF79CFB00287FF4E9
:1022C00097AEBDF80C3014A903F1010E9A1C11FA57
:1022D0008EFE0B4492B204AEB01808211B2603F800
:1022E000401CADF80C200DF1310106220EF8406CB7
:1022F0000BF018FABDF80C209DF83010931D11F06A
:10230000FE019BB23BD114A8034403F8401CD31D2B
:10231000A2789BB2ADF80C304AB9E278002A3FF4BB
:1023200011AED81C1F2819463FF613AEF6E504334C
:102330001F2B3FF60EAE3846FFF760FB00287FF4F8
:1023400057AEBDF80C30BDF83010E278581C14AE12
:1023500016FA80F01E449F1C4FF0030E06F840EC66
:10236000BFB204AE4FF0190E00F840EC0433F01980
:10237000F1559BB2090AADF80C304170CEE714A9B3
:102380000B44012103F8401CC1E7BDF83020934203
:10239000FFF478AF1346092077E762789342FFF4A1
:1023A00071AFADF83020134608206EE773DF704739
:1023B00074DF7047F0B5804D804E85B00746072228
:1023C00000217F480BF0CCF92B6823F07F4323F0EA
:1023D000FF0313B13378012B20D0AB78DBB9784CF5
:1023E0006378002B65D1A378002B62D1E378002BB2
:1023F0005FD12379002B5CD16379002B59D1A3796C
:102400001A1C18BF01227B1E032B00F2D180DFE8CB
:1024100003F0104815313378022BE0D1694B6A4A3A
:102420001B68002B00F0B68001210820117098472E
:10243000D5E76B78002B34D0002A38D1EB78CBB1BC
:10244000604B1B6803223270E3B9604B00221A70A4
:102450001022684600210BF083F9337800228DF8B2
:1024600000208DF80820042B45D8DFE803F08F8585
:10247000694724002F79D7B1524B1B680422327070
:10248000002BE2D02A78002ADFD0514A1278002AA5
:10249000DBD150484D490270012207200A7098474D
:1024A000D6E7AB78002BC9D0002AC7D002273770F7
:1024B000CBE70122A7E72B78A969EA69ADF80A10F2
:1024C000ADF80C20002B67D0414B1978002963D15F
:1024D000404B1B78002B5FD03F4B04240222184650
:1024E000DC708DF80820FFF7FDFC00285CD13B4A2A
:1024F000337806211170002B35D02EE02B78296916
:102500006A69ADF80A10ADF80C20002B48D0304BAA
:102510001978002944D12F4B1B78002B40D02E4B2B
:10252000042402221846DC708DF80820FFF7DAFC3C
:10253000002839D1294A3378052111709BB10CE06C
:102540002648EA68AB6801940121022404708DF8E2
:102550000010ADF80C20ADF80A30214B6846197810
:10256000FFF724FF30B9174B1B6813B11B4A1078D3
:102570009847002005B0F0BD1849019401230022BE
:102580000B708DF80030CDF80A20E6E7134B0022DF
:102590001A70E8E7137022E7104B04221A70DCE788
:1025A0000E4B03221A70D8E73378002BDBD0D4E728
:1025B0000027377049E700BFAC260020A92600207D
:1025C00048270020102700204427002081270020D2
:1025D0008227002080270020CC260020A82600206B
:1025E000092700202DE9F84FDDF828E0002800F049
:1025F0009980002A00F09680144605469C460E46B7
:102600000FCC4A4FDFF84C91DFF84CA1DFF84C813A
:10261000DFF84CB10FC794E80F0087E80F00444A79
:10262000444F454BC2F800C0002401214FF6FF7C07
:1026300089F80010072221464048A3F800C0CBF8D3
:1026400000E08AF8004088F800400BF089F8214645
:102650003C2238460BF084F805F1100393E80300A0
:10266000AA78EB7895F800E0BA70FB7007F11003D8
:1026700095F801C087F800E083E8030005F108033E
:1026800093E8030007F1080E05F118038EE8030034
:1026900093E803006A6A87F801C007F1180383E82A
:1026A0000300B2B1264B7B62686A264AB0F804E0A8
:1026B00001881980A3F804E09A60BEF1000F08D0E9
:1026C000013A23468168C95C02F8011F0133734552
:1026D000F8D1AB6AB3B11C4BBB62A86A1B4A8488B1
:1026E000018819809C809A6044B1013A0023816876
:1026F000C95C02F8011F0133A342F8D195F82C30D0
:1027000087F82C302B6A23B1114B3B622A6A12687E
:102710001A606B6803B17B6031460648BDE8F84F2C
:10272000FFF7E0BB0E20BDE8F88F00BFAC2600200D
:1027300010270020CC2600200A2700204827002050
:102740003827002018270020502700205C27002071
:102750007C27002014270020A9260020092700201C
:102760000C2700200C4B1B780BB90820704710B5C4
:102770000A4B82B0044601A81C7007F0C7FD019BFC
:102780002BB1074B01221A70002002B010BD204669
:10279000FFF710FEF9E700BF14270020A92600204C
:1027A0000827002010B50388112B82B019D01B2BED
:1027B0000AD0102B01D002B010BDC37B012BFAD17F
:1027C000214B82881A80F6E7037A002BF3D11F4B46
:1027D0001B78F3B908201E4B1B68002BEBD09847E1
:1027E000E9E7194A838812881A4900209A4208703A
:1027F000E1D1164B1B78002BECD0174B012401A81C
:102800001C7007F083FD019BBBB1144B01221A70B1
:10281000D1E71149124A0B78013382FB0302DC171E
:10282000C4EB620404EB84041B1BDCB201A80C7033
:1028300007F06CFD019B002BE7D12046FFF7BAFDA6
:102840000028B8D0C7E700BF0A27002014270020BF
:102850000C27002082270020A9260020082700201E
:10286000676666660238012813D830B5114C2378A4
:1028700083B00BB903B030BD0F4B1B780022227020
:1028800043B908200D4B1B68002BF3D0984703B0C9
:1028900030BD70470A4B01A81D7807F037FD019B3A
:1028A00013B101232370E5E72846FFF783FD0028D5
:1028B000E0D0E7E708270020142700200C2700209D
:1028C000A9260020F0B583B0FFF772FD164A174C19
:1028D000174E002306271046012519462370D7708E
:1028E0003570FFF7FFFA044610B1204603B0F0BD83
:1028F000104B1B7843B908200F4B1B68002BF4D0FA
:102900009847204603B0F0BD0C4B01A81E7807F095
:10291000FDFC019B13B10A4B1D70E6E73046FFF743
:1029200049FD0028E1D0E7E7CC26002080270020E1
:1029300082270020142700200C270020A926002031
:102940000827002075DF704776DF70477ADF704711
:102950007BDF7047184B18884FF6FF7398422AD0D8
:1029600010B5164A164C1378217B0133DBB299421D
:1029700082B013700CD2237C002111708BB9636973
:1029800023B102A8002200F8042D984702B010BD20
:102990000C49FFF7D7FF0028F8D0A369002BF4D12A
:1029A000F4E73B21FFF7D0FF0028E8D0A369002B14
:1029B000E5D09847E3E7704784270020D42700201C
:1029C00088270020CC27002070B51E4B1E4A5B884C
:1029D0001188994282B00FD852889A420CD31B4B6F
:1029E0005B6923B102A8012200F8042D9847184C16
:1029F0000023237002B070BD154C227862B1134BD6
:102A00005B69002BF4D002A8002200F8042D98473F
:102A10000023237002B070BD0C4D0E486968067823
:102A2000AB680D48002E18BF194606F031F8002893
:102A3000DED0AB69002BDBD098470023237002B0B7
:102A400070BD00BFC4270020CC27002088270020AD
:102A500083270020D4270020A4270020F8B50546AE
:102A60000FCD144C144F0FC4064695E80700002301
:102A700084E807003B70B6B13068104B716803C33F
:102A8000A3F10800FFF762FF90B90D4C0D4D0E4AFF
:102A90000E4800234FF6FF76237019462E80BDE8BE
:102AA000F84005F0E3BF0548FFF752FF0028ECD0DF
:102AB000F8BD00BF8827002083270020CC270020F6
:102AC000D42700208427002055290200DCE20200E0
:102AD0000388112B70B527D012D9122B07D0502B99
:102AE00047D1244CC288E3899A4230D070BD083067
:102AF00003C8214B83E80300BDE87040FFF764BFC3
:102B0000102B35D11D491B4C1B4B1D4DE48900F189
:102B100010028088088092E80300002283E8030006
:102B20002A70002CE8D070BD1449154B15484FF69B
:102B3000FF7400220C801A7006F000F80028D5D02F
:102B40000C4B9B69002BD1D0BDE870401847038A1D
:102B5000022BCBD1123000F02BF90028CCD1094840
:102B600005F0ECFF0028C1D0A369002BECD1BDE734
:102B700070BD70BD88270020C42700208427002056
:102B8000D4270020A42700200388112B74D02DE91E
:102B9000F0471A2B94B0814653D0102B02D014B0BA
:102BA000BDE8F087DFF804A1DAF84820DAF844300D
:102BB0000AF1040123EA020203A807F09DFD039E27
:102BC0008EB10024A0460DF10E050AF1440735F838
:102BD000023F3048CDF8008001341D22394607F00D
:102BE00047FDB442F3D1DAF84400B9F80440C043D9
:102BF00007F008FD4FF6FF73984244D026490AEBD0
:102C0000400A2246A1F144000123AAF8044007F03B
:102C100011FD22492246A1F14000012307F00AFDDF
:102C200099F80F301E49B9F80420A3F10203B3FA52
:102C300083F35B09A1F1480014B0BDE8F04707F049
:102C4000F9BC037A174982881F2B94BF0023012304
:102C5000A1F14C0007F0EEFC99F808301249B9F8E0
:102C600004202F2B94BF00230123A1F1500014B0A6
:102C7000BDE8F04707F0DEBC074982880023A1F1D8
:102C8000440007F0D7BC042014B0BDE8F04705F0BD
:102C900061BA00BFDC270020202800201C2800206B
:102CA00024280020282800202C280020D8270020B5
:102CB00038B5094C05460246616C201D07F004FD3D
:102CC00040B12A46E16C201D07F0FEFC002814BF2D
:102CD0000220012038BD00BFD8270020024B024649
:102CE000196D181D07F0F0BCD8270020024B0246D2
:102CF000596D181D07F0E8BCD827002010B504490D
:102D000004464A6C043107F0F7FC204610BD00BFB2
:102D1000D827002030B40A4D00232968012401E09F
:102D2000182B0AD004FA03F20A42D8B203F10103C5
:102D3000F6D10A432A6030BC7047184630BC704751
:102D4000D827002030B4084D01232C688B40234045
:102D500002D1184630BC704705EB81010246896DEF
:102D6000281D30BC07F0B0BCD827002070B4084D37
:102D700001242E688C40344201D170BC704716315A
:102D800005EB810113460246281D70BC07F052BCBA
:102D9000D8270020054A0123116883400B401ABF41
:102DA00002EB8002906D1846704700BFD8270020C4
:102DB000007800F00100704730B585B0054600F09E
:102DC00047FB112842D0044617D880B30C281CD1E9
:102DD000072328468DF80430ADF8085000F00EFEA9
:102DE000ADF8060001A802F091FE0022184B28461B
:102DF0001978FFF7BBFF05B030BD862815D043F228
:102E00000203984201D10022F0E7092328468DF8F9
:102E1000043000F0F3FDADF8060001A8ADF808504D
:102E2000039402F073FE0022E0E70823D1E70123B8
:102E300028468DF80430ADF8085000F0DFFDADF8FD
:102E4000060001A802F062FE2246CFE70122CDE78C
:102E50009128002030B585B0054600F045FB0B28D1
:102E600031D004460FD911280BD043F20203984207
:102E700019D100221B4B28461978FFF777FF05B0C0
:102E800030BD0122F6E770B9022328468DF80430E0
:102E900000F0B4FDADF8060001A8ADF8085002F04E
:102EA00035FE2246E6E7092328468DF8043000F077
:102EB000A5FDADF8060001A8ADF80850039402F096
:102EC00025FE0022D6E7032328468DF8043000F0C3
:102ED00095FDADF8060001A8ADF8085002F016FE09
:102EE0000022C7E7902800202DE9F04F95B003A8F5
:102EF000FFF704FFDDF80C90B9F1000F4BD0DFF8BD
:102F0000E080DFF8E0A00DF10E07002402E00134BC
:102F10004C4540D037F8025F98F800102846FFF77C
:102F200011FF06460028F2D09AF800102846FFF755
:102F300009FF83460028EAD1284600F057FB0828FD
:102F400002462ED02AD943F20201884214D043F21D
:102F5000014188423BD011280ED04FF0090328468A
:102F60008DF80030ADF80450029200F047FDADF846
:102F70000200684602F0CAFD324698F80010284662
:102F8000FFF7F4FE01345A4628469AF80010FFF77E
:102F9000EDFE4C45BED115B0BDE8F08F40B106281E
:102FA000DBD1284600F02AFD00F036FB0026E3E7DF
:102FB000052328468DF8003000F020FDADF8020012
:102FC0006846ADF80450B34602F0A0FDD4E74FF6D2
:102FD000FF729542D0D02846FFF73CFFCCE700BFF8
:102FE000922800209328002010B5037884B004466E
:102FF000012B4088ADF8060017D005D3022B01D174
:103000002379E3B904B010BD04A8002300F80C3DF7
:1030100002F07CFD608800F0D7FD4FF6FF73984208
:10302000F0D0FFF717FF04B010BDA288ADF808205C
:1030300001A88DF8043002F069FD04B010BD00F065
:10304000C3FD4FF6FF739842DCD0064C0122217875
:10305000FFF78CFE2078FFF79DFE0028D2D0FFF707
:1030600043FFCFE792280020F0B50578012D85B009
:103070001DD144884FF6FF739C42064613D020466C
:1030800000F032FA0B2807462AD01AD9112839D075
:1030900043F20203984225D100221B4B20461978A7
:1030A000FFF764FE7488204600F08EFA08B905B078
:1030B000F0BD164B708819780122FFF757FE05B056
:1030C000F0BD78B9022320468DF8043000F096FC5C
:1030D000ADF8060001A8ADF8084002F017FDDBE7E7
:1030E0000323F0E7092320468DF8043000F086FC26
:1030F000ADF8060001A8ADF80840039702F006FD00
:103100000022CAE72A46C8E790280020922800201B
:1031100070B50578072D84B001D004B070BD468825
:10312000304600F095F9112804461FD016D8B0B3E8
:103130000C2824D130468DF80450ADF8086000F01A
:103140005DFCADF8060001A802F0E0FC00221B4B7C
:1031500030461978FFF70AFE04B070BD862807D004
:1031600043F2020398420AD10022F0E70122EEE77F
:1031700008233046ADF808608DF80430DFE70923F6
:1031800030468DF8043000F039FCADF8060001A897
:10319000ADF80860039402F0B9FC0022D7E70123E0
:1031A00030468DF80430ADF8086000F027FCADF82B
:1031B000060001A802F0AAFC2246C8E791280020D8
:1031C00070B5FFF7A7FD0F4C0F4D2070FFF7A2FD64
:1031D0002870FFF79FFD0D4E3070FFF79BFD2378A1
:1031E0000B4A182B10700AD02B78182B07D0337885
:1031F000182B04D018280CBF0320002070BD03201A
:1032000070BD00BF91280020902800209228002047
:10321000932800202DE9F0470388522B94B00446F0
:103220007CD0542B61D0502B16D0DFF80C81404F4E
:103230003878FFF7AFFD00283AD13E4F3878FFF7D6
:10324000A9FDD0B998F80000FFF7A4FD08B1FFF779
:103250004BFE14B0BDE8F087037B012BE5D1837AE8
:10326000012BE2D1028942F602139A42DDD1808815
:10327000DFF8C480FFF7A0FDD9E703A8FFF73EFD04
:10328000DDF80C90B9F1000FDCD00DF10E06002432
:1032900001E0A145D6D036F8025F39782846FFF71D
:1032A00051FD01340028F4D02846FFF785FDF0E7F2
:1032B00003A8FFF723FDDDF80C90B9F1000FBCD097
:1032C0000DF10E0600244FF6FF7A36F8025F3978CA
:1032D0002846FFF737FD013420B15545284601D077
:1032E000FFF7B8FD4C45F0D1A7E7062380888DF89D
:1032F000003000F083FBDFF84080A388ADF80200C7
:10330000ADF8043000F088F9A08898F80010002289
:10331000FFF72CFD684602F0F9FB88E780884FF63E
:10332000FF73984281D0FFF795FDDFF80C807EE7B0
:103330009028002091280020922800202DE9F041BB
:1033400092B000F013F901A8FFF7D8FC019EDFF856
:103350005880DEB100244FF6FF7703E00134A4B2B9
:10336000A64213D912AB03EB440333F8405C284662
:1033700000F044FBB842F1D101342846012298F80C
:103380000010A4B2FFF7F2FCA642EBD898F80000B8
:10339000FFF700FD10B912B0BDE8F08112B0BDE832
:1033A000F041FFF7A1BD00BF92280020A7DF7047C2
:1033B000A9DF7047AADF704770B50378012B84B08E
:1033C00023D01D4C23884FF6FF75AB421BD01B4A00
:1033D00092E8030002AE86E8030000221846314658
:1033E00002F0E8F82388AB420BD10CE0184602F05B
:1033F000DDF800223146208002F0DCF82388AB4261
:1034000001D01128F2D104B070BD0579012D044618
:10341000D7D102AA2946408801F034FD0028D0D136
:103420006388ADF80230684602238DF804508DF8A9
:103430000030FFF7D9FDC4E794280020E0E2020045
:10344000024B4FF6FF721A8000207047942800202C
:103450002DE9F04182B0074600F0D0FA4FF6FF7335
:1034600098423ED0054601264FF003086B4632468F
:103470000821284601F00AFD0323044638BB019ABF
:103480003846911D42F8048BFFF794FF044610B3B1
:103490000C2815D0052C28464FF0080106D001F065
:1034A000D3FE40B9204602B0BDE8F08101F0CCFE69
:1034B00004460028F6D00324204602B0BDE8F0817F
:1034C000013608212846B6B201F0BEFECEE7072835
:1034D00008BF0C24E6E72846082102F05FF80446FE
:1034E000E0E743F20204DDE72DE9F04182B0074650
:1034F00000F084FA4FF6FF73984204D06A46082120
:1035000001F0C0FC38B30026354603244FF0010813
:103510002346324629463846FFF74AFF04280AD098
:1035200008280AD00B280AD0B8F1000F08BF0B20DA
:1035300002B0BDE8F0811120F6E70020F4E714F0B6
:10354000020406D165B12646254603244FF0000843
:10355000DEE70124FAE7019DAE882C680635D5E741
:10356000002EE5D02E460324F0E700BF70B54FF6DD
:10357000FF7082B002F01AF8114A124C034692E82A
:10358000030000228DE8030018466946238002F0FC
:1035900011F823884FF6FF76B3420ED06D460AE04D
:1035A000184602F003F800222946208002F002F8B3
:1035B0002388B34201D01128F2D102B070BD00BF00
:1035C000E0E202009428002000B583B000F016FA73
:1035D0006A46012101F056FC20B9019B187803B01E
:1035E0005DF804FB002003B05DF804FB70B5094EE4
:1035F0003388054643F2030419464FF6FF72284606
:10360000FFF7D4FE0133A0429BB200D070BD3380DF
:10361000F2E700BF9628002010B5074B044693E858
:10362000030082B08DE8030000226946204601F0C5
:10363000C1FF02B010BD00BFE8E2020043DF7047E7
:103640000388102B00D070472DE9F043041D0FCCE8
:10365000A1B013AD0FC50FCC0FC50FCC0FC59DF892
:10366000503022682A6003F0FE03062B00F0A4808D
:1036700000F0B0FD9DF850305B08012B40F2D48083
:10368000022B40F0998005AE0DF106053246294621
:10369000072000F0A7FD002800F08E809DF8503034
:1036A00003F0FE03042BF1D1069C03220DF151011E
:1036B00002A80AF037F8032215A904A80AF032F884
:1036C000237C8DF81C30E37B8DF81D30A37B8DF8B7
:1036D0001E30637B8DF81F30237B8DF82030E37A1A
:1036E0008DF82130A37A8DF82230637A8DF823305B
:1036F000237A8DF82430E3798DF82530A3798DF87D
:10370000263063798DF8273023798DF82830E378D7
:103710008DF82930A3788DF82A3063788DF82B3016
:103720000D2200210BA80AF01BF89DF810109DF83F
:1037300011209DF812308DF83B1007A88DF83A2023
:103740008DF83930FFF77AFF9DF84B209DF84A40FD
:103750009DF849308DF80C2003A9032202A88DF8AA
:103760000D408DF80E3009F0CFFE00288ED1BDF847
:103770004C70BDF806504FF6FF739F4222D14FF6B2
:10378000FF739D4215D0BDF84C40474B2046197839
:10379000FFF7D8FAB8BB20AC012304F8643DBDF8AC
:1037A0004C30ADF81E30204602F00CFA2046FFF7F0
:1037B0005BFC21B0BDE8F083BDF84C704FF6FF759F
:1037C000AF42F6D0DFF8E080384E98F800100122C2
:1037D0003846FFF7CBFA98F800103846FFF7B2FAF0
:1037E00000283FD1DFF8C4900024B9F8020098F80F
:1037F0000010FFF7A7FA09F10C09002851D0013495
:10380000142CF2D1BBE7294E0023324602E00133EB
:10381000142BC0D05188A14202F10C02F7D103EB66
:10382000430326F82350B6E705AE0DF106053246F0
:103830002946072000F0D6FC0028BDD0069911F1DA
:10384000110FF4D09DF850304A7C534013F0FE0F16
:10385000EDD1123106220DF1510009F055FE00287C
:10386000E5D184E70023324602E00133142BB9D0BE
:103870005188B94202F10C02F7D1DBB203EB4303EA
:1038800014AA9B0092E80300F41804F10802606097
:1038900022F8021B4FF6FF70090CF052678011707E
:1038A0006DE7E3B2EAE700BF982800209C280020DB
:1038B000037813B90179072900D07047F0B589B0B2
:1038C000044602AA408801F0DDFA08B109B0F0BD53
:1038D00000F080FC04AA0DF10601072000F082FC34
:1038E0000028F3D06288BDF806309A42F2D0039DDA
:1038F0006B78F3B9AB78E3B9EB78D3B92B79C3B96B
:103900006B79B3B9AB79A3B9EB7993B92B7A83B956
:103910006B7A73B9AB7A63B9EB7A53B92B7B43B942
:103920006B7B33B9AB7B23B9EB7B13B92B7C002BBF
:10393000D0D0059F1022791C681C09F0E5FD17F115
:10394000110F064605D06B7C7A7C534013F0FE0FB6
:1039500024D0B6FA86F67609002EBBD00023648800
:1039600018481A46C15AA14203F10C0323D0013270
:10397000142AF7D14FF6FF7106A80022BDF80630D1
:10398000ADF81A10ADF81C408DF81820ADF81E30B7
:1039900002F018F906A8FFF767FB97E707F1120195
:1039A00005F11200062209F0AFFD002ED6D0B0FAC4
:1039B00080F67609D0E702EB420200EB82025188E2
:1039C000DAE700BF9C28002010B50A4B0A4C1822E9
:1039D000227003F1F0014FF6FF725A800C338B42D4
:1039E000FBD1FFF797F9182820700CBF03200020A7
:1039F00010BD00BF9C280020982800200D4B10B55A
:103A000019780446FFF79EF910B94FF6FF7010BD04
:103A100009480023024602E00133142BF5D05188F7
:103A2000A14202F10C02F7D103EB430330F823006B
:103A300010BD00BF982800209C28002038B5114BED
:103A40000D4619780446FFF77DF908B9052038BD01
:103A50000D480023024602E00133142BF6D05188B2
:103A6000A14202F10C02F7D103EB430300EB830305
:103A70001A1D586828601B899279AA71AB800020B2
:103A800038BD00BF982800209C280020028808B577
:103A90007AB983786BB9C3785BB903794BB9437949
:103AA0003BB983792BB9C3791BB9037A0BB9437A34
:103AB00013B10B88934201D0002008BD02310822C7
:103AC000023009F021FDB0FA80F0400908BD00BFC6
:103AD00030B585B00446851C00F07CFB02AA0DF1D0
:103AE0000601072000F07EFB00285FD023880399A1
:103AF000002B35D1A278002A5CD1E378002B49D184
:103B00002279002A46D16279002A43D1A279002A7B
:103B100040D1E279002A3DD1227A002A3AD1637A53
:103B2000002B4CD12379002B2FD1627952B9A37984
:103B3000002B36D1E2792AB9237A002B31D1627A6F
:103B4000002ACBD04A8D9A42C8D12C31082228466F
:103B500009F0DAFC0028C1D1BDF8060005B030BD7F
:103B6000B1F846209A42EDD148310822284609F0A2
:103B7000CBFC0028F0D023880399002BE2D1A27857
:103B8000002ADFD1E378002BCCD04A8D00239A4263
:103B9000A4D1DAE7B1F84620002AE5D0002BC1D045
:103BA000F3E713464A8D9A4298D1CEE74FF6FF705D
:103BB00005B030BDB1F84620002AD5D0C2E7B1F833
:103BC0004630002BD0D0ADE710B400230B4C1A4682
:103BD000E15A814203F10C0307D00132142AF7D1D4
:103BE0004FF6FF705DF8044B704702EB420204EBA6
:103BF00082025DF8044B5088704700BF9C2800206B
:103C0000038893B9837883B9C37873B9037963B9A7
:103C1000437953B9837943B9C37933B9037A23B963
:103C2000407A003018BF012070470120704700BF64
:103C300038B50C4B0D4619780446FFF783F800B9E8
:103C400038BD09480023024602E00133142BF7D0A7
:103C50005188A14202F10C02F7D103EB430320F893
:103C6000235038BD982800209C28002070B50022E1
:103C70001B4C1346A15A814202F10C0206D00133BB
:103C8000142BF7D1BDE8704000F044BF03EB4303B1
:103C900004EB83035D8800F03DFF4FF6FF739D4208
:103CA000064600D008B1304670BD0E4B2846197844
:103CB000FFF748F80028F6D0094A334602E00133FE
:103CC000142BF0D05188A94202F10C02F7D103EB7A
:103CD00043034FF6FF7224F82320304670BD00BF27
:103CE0009C280020982800208FDF70479EDF7047B7
:103CF000ADDF7047B8B11B2210B400234FF017148A
:103D000002710460C0F80640C0F80E408161027381
:103D10004273027542758372C3728374C3745DF813
:103D2000044B184670470E20704700BFF0B58D88D1
:103D3000012D83B001D903B0F0BD0B88212B0446BF
:103D400074D01BD93A2B00F0B180552B00F088803D
:103D5000222B24D0EE00A3199B7A002BEBD0344405
:103D60002846E188FFF7C2FF00285BD01128E2D087
:103D700002466C49012007F009FCDCE7102B24D037
:103D8000112BE7D100EBC50300211B224FF01710C8
:103D9000C3F806009972D9721A735A73CBE7EE0012
:103DA00087190A7A7A738369002B39D000214DF67E
:103DB0007A2EADF80410ADF8025069468DF8042053
:103DC000ADF800E09847BB7AC7E7CB7B0279EE00FD
:103DD0008719012B3A7300F08680022B00F08C804B
:103DE000F9883B898B42C0F08A803B7B7A7B9A4280
:103DF00016D24FF0000E9BB2724669462846ADF8C7
:103E00000030ADF80230ADF804E0ADF806E0FFF7A1
:103E10006BFF28B103462A464349012007F014FCF2
:103E2000BB7A9AE70122A072E27284E7EE0087195A
:103E30000B7A3A7B0020934228BF1346019002463A
:103E400069462846ADF80030ADF80230FFF74CFF68
:103E50000028E5D002463549012007F097FBDFE74F
:103E6000EE00CB888719172BF98838BF17238B42B0
:103E700028BF0B4600223B81BA722846FFF738FF65
:103E8000002833D1FB7A002BCAD1A369002BC7D0FD
:103E900040F677213A89ADF80010ADF80250ADF840
:103EA0000420694620469847BB7A56E700EBC506D2
:103EB0004B89F18882698B4228BF0B46172B38BF8C
:103EC000172333815AB1F17A49B140F67721ADF821
:103ED0000010ADF80250ADF8043069469047002359
:103EE000F372B37227E70188F9807AE70246104936
:103EF000012007F04BFBC5E74188F98071E72846B0
:103F0000FFF7F4FE10B90123FB726EE7112802D10E
:103F10000123BB7269E702460249012007F036FB24
:103F200063E700BFF8E2020054E3020020E402006D
:103F3000C8E30200F0B58BB00822002101A809F007
:103F40000FFC4FF6FF7001F0D5FB4FF6FF76B04245
:103F500018BF044608D12CE001F076FB204601F0A2
:103F6000C9FBB042044624D0A4F58045ADB2284632
:103F700001AA03A906F01EF80A282046ECD00F4E2D
:103F80003778B7B928460125357005F02FFF082886
:103F9000034610D068B10921FF2206A83770ADF89A
:103FA0001A40089709938DF818108DF81C2000F01E
:103FB00001FB0BB0F0BD024B1D70FAE79429002005
:103FC0009529002070B54168047884B0B1FA81F376
:103FD0005B09621E0393042A0AD8DFE802F032323A
:103FE0004F12030004A8082300F8103D00F0E2FA85
:103FF0003C4C23781BB100232370FFF79BFF04B0D8
:1040000070BD838903F580439BB243F6FE729342F1
:10401000EED8C289002AEBD1FF22ADF802308DF82C
:104020000420002950D007238DF800302E4A2D4C53
:10403000002323701370FFF77DFF684600F0BAFA83
:10404000D7E78389C58903F580439BB243F6FE72A7
:1040500093422DD8012CADF802308DF804503AD09F
:1040600000290CBF012304238DF8003083680293DC
:10407000684603911B4C00F09DFABAE78389C48916
:1040800003F580439BB243F6FE72934216D88268D2
:104090000292002914BF0522022268468DF80440CE
:1040A000ADF802308DF800200E4C00F083FAA0E746
:1040B00005F58046B6B296429AD8CBE704F580451E
:1040C000ADB2954294D8E2E7184606238DF8003049
:1040D00001F0BAFAAAE700290CBF002303238DF8E8
:1040E0000030C3E7952900209429002030B51848F6
:1040F00089B005F0D5FB18B10324204609B030BDC6
:1041000005F0E2FB044618B18624204609B030BD14
:1041100001F054FA03A80822214609F021FB0DE022
:1041200005A805F053FD019B9D8805F58045ADB2BE
:1041300005A805F06FFD284601F056FA05A903AA67
:104140004CF2070005F0DEFE01A90028E8D0D4E714
:10415000C53F0200F0B5FF2887B003D907242046E9
:1041600007B0F0BD012902D00C1F042CF6D80D4673
:1041700004460021174601A808221E4609F0F0FA5D
:10418000A4F58040A5F5804180B201AB03AA89B2B5
:1041900005F09CFE08B10524E1E701A903A805F09C
:1041A00015FD04460028F6D1019BBD705B883B805D
:1041B0002EB131689A008A4207D20424CFE7029BCD
:1041C0007B6003A805F026FDC9E77868029909F02D
:1041D000A9FAF6E708220021014809F0C1BA00BF98
:1041E0008C29002070B5044686B0A0F580400E46AC
:1041F000154680B203A90E4A05F084FE10B10020D6
:1042000006B070BD01A903A805F0E0FC0028F6D1B6
:10421000019B02995A8869609B88AC7003F58043C2
:104220002A8003A8338005F0F5FC012006B070BD9C
:104230008C29002008B58378012B04D0043B042B83
:1042400001D9072008BD0A460188104605F006FD81
:10425000072805D0092802D0002818BF032008BD70
:10426000862008BD00B583B002AB43F8040D1846A4
:1042700005F034FD002814BF0320002003B05DF8D2
:1042800004FB00BF70B58CB0FF28019203D907244E
:1042900020460CB070BD8A78012A02D0141F042C6D
:1042A000F5D8A2F5804296B2A0F580440A88ADF810
:1042B0000C201D464B68029302A90123A4B20822D8
:1042C000079104A80021ADF82030ADF81840ADF8F2
:1042D0001A6009F045FA04AB3146204609AA05F0F8
:1042E000F5FD019B88B143BB06A909A805F022FD95
:1042F00004460E2C1BD8DFE804F0131A1A1A1A1AF7
:104300001A110F1A1A1A1A1A0F0093B906A909A836
:1043100005F04CFD0446ECE71124B9E78624B7E725
:10432000002DB5D0294609A805F062FEB0E70324A8
:10433000AEE701A805F0D2FCE8E701AA06A909A8A2
:1043400005F016FD0446D4E74FF6FF7001F04CB9B6
:10435000FF2801D90720704708B501F063F9FFF77E
:10436000E9FD002008BD00BF01F082B901F08AB963
:1043700001F0C0B92DE9F047DFF82C92B9F8002020
:1043800082B000238242009301938DF8021027D05F
:10439000B9F81430834200F0DB80B9F8283083424A
:1043A00000F0D880B9F83C30834200F0DF80B9F8E3
:1043B0005030834200F0DE80B9F86430834200F070
:1043C000D780B9F87830834209D0B9F88C3083426D
:1043D00008BF072304D0052002B0BDE8F0870623FC
:1043E00003EB830309EB8304A3788B425DD06E4B10
:1043F0009A8A82424FF006084FF0050C4FF0040EE7
:104400004FF003074FF007064FF002054FF0010A87
:1044100043D0082D2A46DED01C8D844220D0082FA0
:10442000D9D09A8F824269D0BEF1080FD3D0B3F8A9
:104430005020824260D0BCF1080FCCD0B3F8642089
:10444000824257D0B8F1080FC5D0B3F87820824225
:104450004ED0082EBFD0B3F88C208242BBD132465A
:1044600002EB820209EB8204A2788A421DD00AF193
:10447000010ABAF1080F05F1010503F1140306F171
:10448000010607F101070EF1010E0CF1010C08F114
:104490000108A0D09A8A8242BBD1524602EB820226
:1044A00009EB8204A2788A42E1D1637CDB0703D561
:1044B000002002B0BDE8F08705460E463B48217C4F
:1044C00001F002FD002836D0E3688DF8026003EBAE
:1044D00083031B019BB29B08711E0190ADF8003055
:1044E000072910D8DFE801F00C0F0F0F0F0C383C34
:1044F0004246B5E76246B3E77246B1E73A46AFE7F0
:104500000123ADF8003004F10803694628466268CB
:10451000FFF7B8FE637C03F00603062B03D1244AA1
:104520001368013B136050B1112825D086282FD085
:1045300007283FF451AF032002B0BDE8F087637C49
:1045400043F0010360F3820360F34103637443E7C4
:10455000012345E7022343E71423ADF80030D2E7F7
:10456000838809339B08ADF80030CCE7032337E795
:10457000052335E7042333E70D49637C0A6843F0DC
:10458000040301326FF341030A606374002023E7E0
:104590000749637C0A6803F0FB03013243F002031E
:1045A0000A60637418E700BF2C2C00201C2C00202C
:1045B000182C00202DE9F04FDFF870834288B8F8FE
:1045C000001090F804B085B000239142009301934D
:1045D0008146ADF802208DF804B00293039334D0E5
:1045E000B8F81430934200F08E81B8F82830934226
:1045F00000F08B81B8F83C30934200F09581B8F818
:104600005030934200F09C81B8F86430934200F03F
:104610009581B8F87830934216D0B8F88C30934230
:1046200008BF072311D099F80030092B00F28F80C2
:10463000DFE813F07E007E00B9003B013B01C800BB
:10464000DA00E900FB003001062303EB830308EBEB
:104650008304A3785B455CD0B44B998A91424FF0B8
:10466000060C4FF0050E4FF004074FF003064FF015
:1046700007054FF002004FF0010A42D0082801461A
:10468000D1D01C8D94421FD0082ECCD0998F91424E
:1046900065D0082FC7D0B3F8501091425DD0BEF15D
:1046A000080FC0D0B3F8641091425CD0BCF1080F81
:1046B000B9D0B3F87810914253D0082DB3D0B3F8E5
:1046C0008C109142AFD1294601EB810108EB8104A6
:1046D000A17859451DD00AF1010ABAF1080F00F17D
:1046E000010003F1140305F1010506F1010607F1CC
:1046F00001070EF1010E0CF1010C94D0998A914240
:10470000BCD1514601EB810108EB8104A1785945E8
:10471000E1D199F80030092B19D8DFE803F005053D
:1047200044C1C153657486BB627CD50700F10C811E
:10473000D9F808307E4C0293012304F114068DF859
:10474000003054F8043B68469847A642F9D1794BAB
:104750001B6853B905B0BDE8F08F3946B4E7314660
:10476000B2E76146B0E77146AEE7704E0024A5009F
:104770002B1908EB83035B7C59070CD5B37832887F
:10478000DF1F012F1946104600F21181FFF7F2FDDD
:10479000002840F09C800134082C06F11406E6D174
:1047A00005B0BDE8F08F624C032304F114068DF8C8
:1047B000003054F8043B68469847B442F9D15D4B49
:1047C0001B68C6E7D9F80C30594C0293042304F156
:1047D00014068DF8003054F8043B68469847B442FC
:1047E000F9D1544B1B68B4E7514C052304F114066E
:1047F0008DF8003054F8043B68469847A642F9D13A
:104800004C4B1B68A5E7D9F80C30494C02930623A2
:1048100004F114068DF8003054F8043B68469847BC
:10482000B442F9D1434B1B6893E7414C072304F191
:1048300014068DF8003054F8043B68469847A642A9
:10484000F9D13C4B1B68002B84D0384F002409E081
:10485000FFF790FD00283BD10134082C07F1140725
:104860003FF478AFA5002B1908EB83035B7C5A0754
:1048700001D49B07F0D5BB783A88A3F1070EBEF1AF
:10488000010F19461046E3D9ADF802208DF8043027
:1048900007202AE0274BD9F80C2002921B6858E722
:1048A000A268D9F808309A4231D0D9F80C30204C9F
:1048B0000393022304F114068DF8003054F8043BEE
:1048C00068469847B442F9D11A4B1B6841E71A4E23
:1048D0002B199B0008EB0302862838F803309278E6
:1048E0008DF80420ADF802302CD002900923104C32
:1048F0008DF8003054F8043B68469847A642F9D139
:1049000005B0BDE8F08F01239FE602239DE6627C9F
:10491000D007CAD507490B6802F0FE0242F0040234
:10492000013362740B6014E703238EE62C2C002005
:1049300080E40200182C002094E40200052384E6A1
:10494000042382E60823D2E7E2686AB1194E002503
:10495000217C2944C9B2304601F0CEFAE368013522
:104960009D42F5D399F80030627C134DA3F1010309
:10497000B3FA83F35B0902F0F9024FF6FF716FF3AC
:104980000002FF208DF808300023627405F1140640
:104990002180A1702074E3606360A3608DF8003013
:1049A00055F8043B68469847B542F9D1CFE6034E27
:1049B0006AE700BF1C2C002080E4020094E402009F
:1049C0004F4A504B5049F0B5547C92F8257092F8FC
:1049D000396092F84D50FF2004F0F90410746FF321
:1049E0000004002007F0F90706F0F90605F0F905C4
:1049F00060F3000760F3000660F3000554744FF69F
:104A0000FF7482F82570D0605060906010629061F1
:104A1000D0615063D062106390641064506482F877
:104A2000396082F84D50148094709482947582F8A5
:104A30002440148582F82A4082F83840948782F80E
:104A40003E4082F84C4092F861E092F8757092F81E
:104A5000896092F89D50A2F8504085B00EF0F90E92
:104A600007F0F90706F0F90605F0F90560F3000E06
:104A700082F8524060F3000760F3000660F300051F
:104A800082F86040D06550659065A2F8644082F875
:104A9000664082F8744010679066D066A2F878404D
:104AA00082F87A4082F88840C2F88400D067C2F861
:104AB0008000A2F88C4082F88E4082F89C40C2F8B8
:104AC0009800C2F89000C2F894004FF0500C0820F3
