:020000040002F8
:1000000090490020150402001D0402001F04020094
:100010002104020023040200250402000000000065
:1000200000000000000000000000000027040200A3
:1000300029040200000000002B0402002D0402002D
:10004000B90602002F040200410A0200350702002F
:100050002F0402002F040200B50402002F04020046
:100060002F0402002F0402002F0402002F040200BC
:100070002F0402002F0402002F0402002F040200AC
:100080002F040200110702002F0402002F040200B7
:100090007D0702002F040200810702002F040200E6
:1000A0002F0402002F0402002F0402002F0402007C
:1000B0002F0402002F0402000000000000000000D6
:1000C0002F0402002F0402002F0402002F0402005C
:1000D0002F0402002F0402002F0402000000000081
:1000E0000000000000000000000000000000000010
:1000F0000000000000000000000000000000000000
:1001000000000000000000000000000000000000EF
:1001100000000000000000000000000000000000DF
:10040000DFF80CD000F044F8004800477D270200D8
:10041000904900200648804706480047FEE7FEE76F
:10042000FEE7FEE7FEE7FEE7FEE7FEE7FEE7FEE7A4
:10043000A50702000104020040EA01039B0703D064
:1004400009E008C9121F08C0042AFAD203E011F813
:10045000013B00F8013B521EF9D27047D2B201E0D5
:1004600000F8012B491EFBD270470022F6E710B5B9
:1004700013460A4604461946FFF7F0FF204610BD12
:10048000421C10F8011B0029FBD1801A70470000A4
:10049000064C074D06E0E06840F0010394E80700D1
:1004A00098471034AC42F6D3FFF7AEFF1C5502005C
:1004B0003C5502002DE9F04700268CB0DFF8609132
:1004C000B0464FF48075012437460696284603F05F
:1004D000ABF938B1D9F80403204203D0284603F021
:1004E00099F926432D1D64007F1CADB2082FEDD372
:1004F0004FF4BE74204603F097F948B1204603F04C
:1005000089F946F0004606AA0121002003F06EF9A1
:10051000444D16F0FF0F15D00127002437420DD0AF
:1005200009EB8401D1F81005D1F81015C0F30420AF
:1005300055F82420C1F3014102B190477F00641CAB
:10054000082CEBD3002E67DA4FF0FF30CDE908809E
:1005500000263446281910F8507F90F9000027F043
:10056000C008401C44D009A9404602F0A3FA58B381
:100570004FEA9719404601F00FFC55F820701FB163
:10058000B9F1030F03D00FE0B9F1030F30D108A880
:100590004FEAD80208F00703815C4FF0010C0CFA17
:1005A00003FC41EA0C0181544FF0A04101EB8800AB
:1005B000D0F8000706A9C0F3014A404602F07AFAD3
:1005C00018B1BAF1020F03D012E0BAF1030F0FD144
:1005D000B9F1030F08D1BAF1020F1BD00221404636
:1005E00003F0D2F8761CF6B217B149464046B84738
:1005F000641C042CAED3002E0ED06A4601210020CC
:1006000003F0F4F806990098884205D006900898FF
:1006100009909DE70321E2E70CB0BDE8F0870000F8
:1006200000600040D027002000F01F02012191400F
:100630004009800000F1E020C0F88012704700F00F
:100640001F02012191404009800000F1E020C0F824
:100650008011704700F01F02012191404009800085
:1006600000F1E020C0F80011704700F01F020121E6
:1006700091404009800000F1E020C0F8001170476F
:1006800000F01F02012191404009800000F1E020AC
:10069000C0F8001270474907090E002806DA00F07A
:1006A0000F0000F1E02080F8141D704700F1E020F9
:1006B00080F80014704700002DE9F0414FF4807776
:1006C000384602F0FFF90124104EA50748B138461C
:1006D00002F0FFF90120C5F808037470002001F052
:1006E000B9FB4FF48277384602F0ECF900280BD0C2
:1006F000384602F0EEF90220C5F80803B470BDE8F0
:10070000F041012001F0A6BBBDE8F081BC2700202C
:1007100007480021C0F84011C0F84411C0F8481142
:10072000C0F84C11C0F80011C0F8041103F040BE2D
:1007300000100140F8B510480E4D04464FF48C717E
:1007400003F07AF8002813D00026C4F81861D4F812
:1007500018010090A87E2C46FF2801D003F02CF849
:1007600066762671216801B0201DBDE8F04008477B
:10077000F8BD0000482800200030004003F090BD84
:10078000074810B5406830B18047002807D0BDE861
:10079000104000F03DBBBDE8104001F0AFBE10BD01
:1007A00008220020F0B598480023021D0178012599
:1007B000101D4FF08056062907D11478240704D164
:1007C0000478C4F30314032C02D0062904D00FE0EC
:1007D0008F4F8E4C7C670EE01478240708D1047884
:1007E000C4F30314032C06D0042C04D0052C02D02F
:1007F000062907D00EE0D6F84442864FC4F34234AF
:100800003C6002E01478240704D10478C4F3031494
:10081000032C02D0062906D011E07F4C276827F070
:10082000807727600EE01478240708D10478C4F399
:100830000314032C06D0042C04D0052C02D0062966
:100840000AD011E04FF08044C4F80C31C4F81031E4
:10085000704C241F236002E01478240704D104782C
:10086000C4F30314032C02D0062905D00CE0694F11
:10087000032464373C600AE01478240704D1047828
:10088000C4F30314032C02D006290DD014E0634FE7
:1008900005243C60614C78342560604C083423604A
:1008A0003F243F1D3C6002E01478240704D1047803
:1008B000C4F30314052C02D0062957D068E0584928
:1008C0000968584A11605649091D0968121D1160CE
:1008D000534908310968121D116051490C310968EA
:1008E000121D11604E4910310968121D11604C49EA
:1008F00014310968121D1160494918310968494AC3
:100900002032116046491C310968121D11604449AA
:1009100020310968121D1160414924310968121DF6
:1009200011603F4928310968121D11603C492C3182
:100930000968121D11603A4930310968394A40325C
:100940001160374934310968121D1160344938315A
:100950000968121D116032493C310968121D11608D
:100960002F4940310968121D116002E01178090712
:100970000ED10078C0F30310032803D0042801D05F
:10098000052805D1D6F85802274900F04F00086025
:1009900021487438016841F470010160BFF34F8F42
:1009A000BFF36F8F4FF01021D1F80002002803DB56
:1009B000D1F80402002822DA1C4A15601C48046899
:1009C000002CFCD01524C1F800420568002DFCD095
:1009D000C1F8044201680029FCD0136001680029B5
:1009E000FCD0BFF34F8F0C48F0380168114A01F476
:1009F000E06111430160BFF34F8F00BFFDE70F4976
:100A00000D480860F0BD0000E00F00F00DF0ADBA39
:100A100000C007403C050040FCED00E010560040DF
:100A20000404001020C50040E40E004004E501402D
:100A300000E401400400FA050090D00320220020C9
:100A40000448017F04480029024901D003F06DBE2B
:100A500003F0DCBD2828002000200040014A0249A4
:100A600000F026B8832302000422002002E008C818
:100A7000121F08C1002AFAD170477047002001E018
:100A800001C1121F002AFBD170470000012120285C
:100A900003DA81400548014003E0402802DA2038AB
:100AA000814009B10120704700207047FC06FFBC5F
:100AB0002DE9F04116460F460446002503E039466D
:100AC000B047641C6D1C20780028F8D12846BDE88A
:100AD000F0812DE9FC47002517880646158090F81F
:100AE0002D001446894630B13A462146484600F06A
:100AF0008DFD050009D1B0784FF00C0A18B320889D
:100B0000C846001DB84202D95046BDE8FC87684679
:100B100079DF0028F9D12088032108F80010208807
:100B20001921401C80B2208008F800102088401C49
:100B300080B2208000EB0801BDF8000003F06DFEDC
:100B4000218808442080F0780222C8B1218896F9D3
:100B5000033001F1030C4846BC45D5D842542188E6
:100B60004FF0010C491C89B2218000F801C0218896
:100B7000491C89B2218009F801302088401C20805E
:100B80007068B8B1218890F9003001F1030C484633
:100B9000BC45B9D8425421880A22491C89B2218017
:100BA00042542188491C89B2218009F801302088EB
:100BB000401C2080308950B1CDE900474B460622C9
:100BC000022106F1080003F075FE05009DD1308A70
:100BD00050B1CDE900474B460722032106F1100032
:100BE00003F068FE050090D1308B50B1CDE900478D
:100BF0004B461522142106F1180003F05BFE050098
:100C000083D1306A30B13B462246494601F07CFA36
:100C10000500DBD1706A30B13B462246494601F0FF
:100C2000C9FE0500D2D196F82C0038B13B462246C9
:100C30004946304603F054F90500C7D1307838B141
:100C40003B4622464946304601F0E6FE0500BDD14E
:100C500028465AE7134A0021535C0BB1012203E0F6
:100C6000491C0629F8D300220F49012806D0022882
:100C700009D003280CD0042812D10DE0487810B117
:100C80000AB101207047887810B10AB1022070477C
:100C9000C87808B103207047087908B1042070476C
:100CA00000207047A5210020CC26002010B501228D
:100CB0000221002000F0FEFE08B1072810D1072213
:100CC0000221012000F0F6FE08B1072808D100211A
:100CD0000A22084600F0EEFE08B1072800D10020E5
:100CE00010BD000070B5A8B03C2101A8FFF7BDFB06
:100CF00002208DF8040000248DF8064006208DF8AF
:100D000007000125104EADF814503C2110A806969E
:100D1000FFF7ABFBADF8505020211FA81596FFF749
:100D2000A4FB8DF87F504020CDE92304074B1FAA78
:100D300010A901A8009400F09DFA002801D000F04D
:100D400067F828B070BD00006C210020ED3802006B
:100D5000022000F071BD000070B50024064D06E0D1
:100D60006868012110F8340001F0A8FF641C28789D
:100D70008442F5D3002070BDC0210020F8B515468F
:100D80000C460646052A01D20720F8BD02F07CF881
:100D900018B902F04BF80028F7D1104900204E6036
:100DA0000C70C1E902500E4D08610DE006EBC40065
:100DB0006968009181788DF801100078094A6946C8
:100DC00001F0CEFF0028E0D1641EE4B2EED2BDE80F
:100DD000F840054A0021024800F04EB8C02100202A
:100DE0001C4B0200C5230200F1210200BFF34F8F0C
:100DF00005480168054A01F4E06111430160BFF351
:100E00004F8F00BFFDE700000CED00E00400FA0585
:100E10000EB500210091CDE901106A4644F20100AF
:100E2000FFF7E4FF0EBD10B58268C368934203D09C
:100E300001F094FA002010BD052010BD29B112B1B7
:100E4000531E134203D0092070470E2070470160E3
:100E5000838000218160C1600846704710B58268B8
:100E6000C3689A1A83889A4203D801F081FA002055
:100E700010BD042010BD0000074B5B6823B12AB1F0
:100E800020B10068037C1BB1082070470720704721
:100E90004174426100207047E42100202DE9F047B1
:100EA000074698461446894690074FF0000526D11C
:100EB0002CB302F019FF134E06F11000C6F80C8097
:100EC0000570457080F802904460756035707570EB
:100ED0001420FFF7A9FB07211420FFF7DCFB1420E7
:100EE000FFF7B8FB0848076007211120FFF7D3FB85
:100EF0000548001F0068B0600020BDE8F0870720AB
:100F0000FBE70000D4210020081501402DE9FC4733
:100F1000DFF87890D9F8043073B368B3052902D2AA
:100F20000720BDE8FC87436933B3437C012B25D000
:100F3000002704460025884616468DF8005068466E
:100F400000F0CAF801A803F09DFCC8B101210170AE
:100F50000F4944600968C0E90218C0E904769DF8A9
:100F6000040089F801009DF8000000F0D9F8142071
:100F7000FFF786FB2846D4E70820D2E70F46D8E7DC
:100F800004259DF8000000F0CBF8F3E7E4210020F1
:100F9000041501400649496839B130B1416921B1B0
:100FA00000210174022103F0DFB90820704700001E
:100FB000E421002070B50A4E01460A48B578FFF7D3
:100FC00032FF04464DB10020B070711C0122C81DD3
:100FD00002F072F808B1FFF71BFF204670BD000059
:100FE000F421002088280020F0B5284E89B01F4643
:100FF0000D00044672603BD0A888296882B224485C
:10100000FFF71CFF002834D1A889A96882B22048C4
:101010001030FFF713FF00282BD120221D4968460E
:10102000FFF70AFA60690690207C00B101208DF874
:1010300014008DF81C70607C00B10E208DF8150036
:10104000E0680290A06803902068019060680090BA
:101050000E48114A6946083001F0FAFF002808D10D
:10106000B0702068401C04D09DF81D0018B106E047
:10107000072009B0F0BD0548083002F075F80349B3
:101080000122491CC81D02F017F8F2E7F4210020E4
:1010900088280020244B02006D45020010B501464F
:1010A0000B48FFF7DBFE040010D10A4802F0A6F956
:1010B00060B9084906480839FFF7B5FE30B9054957
:1010C00001220839034802F013F90446204610BDF6
:1010D00098280020FC21002030B5EFF3108172B673
:1010E0000D4A9468012324B10370002900D162B62F
:1010F00030BD93604FF0E023D3F88051074C25407A
:101100001560C3F88041D3F8844154605A17C3F87E
:10111000842100220270E8E7A8280020FC06FFBC1A
:101120000B498A68002A11D000280FD1EFF31080F4
:1011300072B60B684FF0E022C2F800314B68C2F87B
:10114000043100228A60002800D162B67047000096
:10115000A82800202DE9F041064608680C46411CED
:101160004FF0A0474FF0010506D005FA00F1C7F88F
:101170000815206802F0E3FA6068411C02D00021E3
:1011800002F0D4FA3079204901EB4010A169007FC8
:1011900000283068C0F8241525D0607D227D316894
:1011A0001043C1F86C05D4E900123068C0F80C1582
:1011B000C0F8142524E0A068411C02D0002102F0F0
:1011C000B5FAE068411C05D08540C7F80855E068CD
:1011D00002F0B5FAD4E902123068C0F80825C0F868
:1011E0001015BDE8F081607D217D32680843C2F8AA
:1011F0006C05D4E900123068C0F81425C0F80C154D
:10120000207D0128D7D0ECE728280020F0B50C4637
:1012100093B01F210726ADF80010ADF80410002789
:1012200050B1C17849070DD56A4602A9FFF751FCB4
:10123000002808D102AD02E00025ADF800706CB1C5
:10124000E07810B1304613B0F0BD01AA0AA92046DB
:10125000FFF73FFC0028F6D10AAA02E00022ADF811
:101260000470BDF80400C3B2BDF80000C1B2284646
:1012700072DFE8E72DE9F0471F46DDF820801346CE
:101280008946040042D0EBB3404D0120002628706F
:10129000EE70202219463E48FFF7CEF8C5E90478E3
:1012A0004FF6FF702881AE613948AE83AE773C219E
:1012B0002030FFF7DAF83648217820300170A17825
:1012C0008170E178C170617841703149D4E90423BB
:1012D000C1E90C23D4E90223C1E90A23D4E9062396
:1012E000C1E90E23616AE1B100F13C0100F148025D
:1012F00041628A60636A1B880B80616A436A8988DD
:10130000998000E002E00021436A07E00E20BDE87A
:10131000F087656AAD686D5C5554491C9D888D42A7
:10132000F7D8A16AD9B11A4A9432A2F10C018A60A5
:101330008162A36A9B888B80A16A836A098819806D
:101340000021836A04E0A56AAD686D5C5554491CB0
:101350009D888D42F7D894F82C1080F82C10216AC3
:1013600049B10A490A310162226A52884A80216AD7
:10137000026A09881180616801B141604946BDE88F
:10138000F04703482030FFF741BF00008C210020C8
:10139000CC26002010B50188144C102918D0112932
:1013A0001CD01B2919D1007A002816D1E07805211C
:1013B000401CB0FBF1F201FB120000BF00F036F858
:1013C00000280AD06169002907D0BDE8104008470D
:1013D000C17B012901D18088208110BD002161716C
:1013E000808821898842F8D10120E7E78C210020FC
:1013F00010B574DF0B4C01200B4960710020E071C7
:101400000620C87000210848FFF700FF002807D118
:10141000E07800F00BF810B1616901B18847002055
:1014200010BD00008C210020EC2600202DE9F041A9
:101430003D4C804686B0207848B184F8038004A8EB
:1014400000F0A6FF0498012628B1667067E0082026
:1014500006B0BDE8F0810025A561344FA583A577CE
:10146000787810B1E078012806D0B87858B1E078E3
:10147000012801D0022806D1216919B1267108205E
:10148000884700E025714046FFF7E4FBE0702169E2
:1014900039B1032801D0042803D1387808B1607924
:1014A00090B1A57100950295019503958DF80050B6
:1014B0008DF808501C48E1781830052925D2DFE85E
:1014C00001F03008111D2100E571A6710720884741
:1014D000E8E7A67001908DF80060ADF80C50ADF80B
:1014E0000A5014E00221A17001908DF80060B889C3
:1014F000ADF80C003889ADF80A0008E0684602F043
:101500005DFD02E0684602F07DFDE07818B16846B6
:1015100073DF00289CD1216909B1A0788847002099
:1015200096E7A570F7E700008C210020CC2600206C
:1015300070B5054601461C220F48FEF77DFF0F4C93
:1015400000262670286830B1016861604068A0609C
:10155000201D7ADF02E00948001D7BDF00280AD148
:101560004FF6FF7060806670BDE87040044A00214D
:101570000448FFF781BC70BDA0270020AC210020EB
:1015800025480200044B020070B51E4C068800235B
:101590001B49E289102E15D01B4D112E1CD0122E86
:1015A00029D0502E17D130F8061F914213D141890E
:1015B000022910D10C3000F0F6F888B1BDE8704077
:1015C00000F0E8BD84884C800469CC604069086103
:1015D0004B70002AF2D070BD4FF6FF7048804B7000
:1015E0002868FFF7D7FC0028F5D0A1690029F2D0C0
:1015F000BDE8704008478268CA60C0680861DDE7DE
:10160000AC210020A0270020044B02007CB5054639
:1016100008880C460930904201D90C207CBD6846F0
:101620006DDF0028FAD121880820685420881B210A
:10163000401C80B2208029542088401C80B2208029
:101640002844DDF801100160BDF805108180208874
:10165000801D80B220809DF80010490800D0012133
:1016600029542088401C208000207CBD10B50446F1
:10167000FFF78AFF2146074800F040F8204602F0B5
:1016800047F92046FFF786FE2046BDE8104000F0EF
:101690005BB900004426002030B5174B0D4604000E
:1016A0000FCB85B08DE80F0023D015B34FF6FF7038
:1016B000A0822868A0610020A0752146684663DFEB
:1016C000002814D120788DF812000120ADF8100008
:1016D000A21C04A9A0DF002809D12946204602F057
:1016E0003AFB002803D12946204602F0B3FE05B09C
:1016F00030BD0E20FBE70000084B020010B50028AB
:1017000022D0002920D00A88102A18D0112A18D0F7
:10171000502A19D104468A1DC888238A123198425A
:1017200002D15389022B10D0A38898420CD1A3690F
:10173000002B09D052892046BDE8104018478988FF
:1017400001E04FF6FF71818210BD084600F02BF8D2
:1017500000B10120A07510BD07B584B068B1828AC0
:10176000A2F57F43FF3B0AD0827D42B1BDF818202D
:10177000142A06D9072007B000BD0E20FBE7082079
:10178000F9E700220092019202920392828903916A
:1017900006A90291ADF8002001218DF80210808A7F
:1017A0006946A6DFE7E7007800F001007047000017
:1017B00000B5134889B00023806807905022114972
:1017C00007A802F07FFC08B1FFF722FB6A4601215F
:1017D000002002F061FC08B1FFF71AFB1720ADF8FA
:1017E0001000684602F04EFC08B1FFF711FB0648F6
:1017F00002F03EFC002801D0FFF70AFB09B000BD53
:10180000AC4A0200682300206D1602000149085C02
:1018100070470000D44A02000649095C4FF0A0401E
:10182000D0F81005C84010F0010000D0012080F071
:1018300001007047D44A020007490B5C4FF0A041F9
:10184000D1F804250120984020EA0203C1F80835A8
:101850001040C1F80C057047D04A02000249085CEC
:10186000012101F0B7BF0000D04A02000249085C24
:10187000002101F0AFBF0000D04A02000649095C18
:101880004FF0A040D0F80405C84010F0010000D08F
:10189000012080F001007047D04A02007CB500248E
:1018A000084E25460122305D009500231146019522
:1018B00001F0F4FE641C042CF4D3BDE87C4000F07D
:1018C00003B80000D04A020010B500242046FFF7FC
:1018D000C5FF641C042CF9D310BD10B500242046AC
:1018E000FFF7C4FF641C042CF9D310BD10B50246E9
:1018F000064B4FF0FF3000215C5C944201D108465A
:1019000010BD491C0429F7D310BD0000D44A0200C1
:1019100070B50C4E0C004FF0000530600BD001206C
:1019200000F0A4F808B1022004E0002000F09EF8C6
:1019300000B10B202070706810B9FFF7B7F90546A9
:10194000284670BD8421002010B51A4C01886068BB
:1019500010290ED011292BD1401E606028D1FFF72D
:10196000A5F9002824D02168002921D0BDE8104025
:101970000847D0B900210122084600F09BF808B1C1
:1019800007280FD107220221012000F093F808B1A7
:10199000072807D104220221002000F08BF820B193
:1019A000072802D0216801B188476068401C606048
:1019B00010BD00008421002010B5002000F0AEF919
:1019C00008B1062806D1012000F0A8F908B10628C0
:1019D00000D1002010BD00002DE9F0470D468146E2
:1019E000FFF784FF0446042838D2DFF878801C48CB
:1019F0001D4EA8F1100735B3012D0ED0022D2DD1AB
:101A000004EB440030444578002D27D0F9680029C4
:101A100024D02846BDE8F047084704EB4401755C34
:101A20000E44717859B179680E4A01EB8101490081
:101A30000E3A8068FFF76AFA08B987F80290B17821
:101A400008F80410E0E78068FFF7A4FA04EB44010B
:101A5000314418F804008D78A842D5D0BDE8F0874D
:101A6000D84A020080210020A0260020FFF7D4BE23
:101A700001460F4810B54088042907D007290ED029
:101A80000A2914D1BDE8104002F0DEBA132176DF36
:101A90000BE000280BD0BDE81040FFF7B9B9A0F566
:101AA0007F41FF3903D1FFF7A3FC0828F1D110BD16
:101AB0006821002070B50023042810D20D4D00EBE2
:101AC0004004012A02D101290CD00022094E00EB6A
:101AD0004000304461B1012906D0022906D0072315
:101AE000184670BD0E30C2B22A55F9E74270F7E7CA
:101AF0008270F5E7A0260020044A01460020127AF1
:101B0000D20702D0084600F04FB87047702100207D
:101B10002DE9F04106461F4800240F464160C0E908
:101B20000262B0071FD50025012211462846FFF7A3
:101B3000C1FF6D1C0446042D02D2002CF4D012E02B
:101B40008CB97A0804211448FFF718F904000AD167
:101B5000FFF702F9040006D10F48104A0021001FC8
:101B6000FFF78AF90446F00701D0FFF797FE74B932
:101B700009480B4A00210C38FFF77EF9040006D112
:101B80000548084A01210838FFF776F9044620463F
:101B9000BDE8F08170210020E44A02002D1D020002
:101BA00009260200510D02002DE9F047594C054667
:101BB0000026607818B100206070FFF785FE0120D4
:101BC000554F4FF47A694FF4C87A4FF06408182DD6
:101BD0002CD2DFE805F0890C0C2C3A4751565A619B
:101BE0005A619B6969696969898C8F929B9B002006
:101BF000FFF744FE00284FF0000008D0FFF72EFE4C
:101C0000022D02D14FF4E16006E0484604E0FFF700
:101C10002DFE022D2ED05046B0FBF8F125706068E5
:101C2000414300223868FFF771F9064659E0002069
:101C3000FFF724FE28B10020FFF710FE4FF4487094
:101C4000EAE70020FFF712FE14E00020FFF716FE7F
:101C500000284FF0000002D0FFF700FED5E7FFF7A5
:101C600005FED8E70020FFF709FE0028E9D0002094
:101C7000FFF7F4FDC820CFE70020FFF7DDFD25705A
:101C800007E000203FE025702BE060700120FFF7A7
:101C9000D3FD00226168C5E760700120FFF7CCFD2D
:101CA000606800EB8001BCE77868FFF773F90646CF
:101CB000D5F1110000D01EB10220FFF7CFFD10E0DA
:101CC00001280BD9C82110FB01F1B1FBF8F16068C4
:101CD000002241437868FFF719F906460220FFF712
:101CE000C5FD3046BDE8F087FFF7EEFDCBE7FFF717
:101CF000EBFDC6E7FFF7E8FD04E0FFF7E5FD002098
:101D0000FFF7B4FD0120FFF7B1FDBCE7FFF7E5FDEC
:101D1000B9E7000070210020D84A020010B5FFF793
:101D200075FD032101F01FFD002010BD0078022188
:101D3000FFF752BE05494FF0FF32082841F8202036
:101D400002D3084480F8482070470000D0270020C4
:101D5000F0B54FF0FF3512B10023082601E008234B
:101D60000C260C4C05E000BF54F823707F1C04D0F7
:101D70005B1CB342F8D32846F0BD26185DB286F846
:101D8000305044F82310002AF5D1E11881F84800BA
:101D9000F1E70000D02700200249084490F9300004
:101DA00070470000D0270020FEB5294A782540233F
:101DB000D2E90412CDE901120021F0244FF6FF729E
:101DC0000A2835D2DFE800F0050834141B24343427
:101DD0003540ADF8041001E0ADF80450ADF8061040
:101DE000ADF80850ADF80A300123009119461CE007
:101DF000ADF80410ADF80630ADF80840F2E7ADF8E4
:101E000004108020ADF80600ADF80840362007E049
:101E1000ADF80410B620ADF80600ADF808402A2051
:101E200001230091ADF80A00002101A801F0A6FBF2
:101E3000FEBDADF80410E020ADF80600ADF8084096
:101E40006020ADF80A00CFE7002001F01BFCFEBDCA
:101E5000C454020070B5084C050009D01034216844
:101E6000002907D008682060496828468847F6E7B7
:101E70000834F4E770BD0000BC27002010B5CF2067
:101E800002F0FFFD002002F006FEC12002F003FE7A
:101E9000302002F000FEE82002F0F3FD852002F081
:101EA000FAFD002002F0F7FD782002F0F4FDCB20CF
:101EB00002F0E7FD392002F0EEFD2C2002F0EBFDF0
:101EC000002002F0E8FD342002F0E5FD022002F0DF
:101ED000E2FDF72002F0D5FD202002F0DCFDEA2033
:101EE00002F0CFFD002002F0D6FD002002F0D3FD6D
:101EF000C02002F0C6FD232002F0CDFDC12002F07B
:101F0000C0FD102002F0C7FDC52002F0BAFD3E2042
:101F100002F0C1FD282002F0BEFDC72002F0B1FD95
:101F2000862002F0B8FD362002F0ABFD482002F01A
:101F3000B2FD3A2002F0A5FD552002F0ACFDB12023
:101F400002F09FFD002002F0A6FD182002F0A3FD84
:101F5000B62002F096FD082002F09DFD822002F0DE
:101F60009AFD272002F097FDF22002F08AFD002062
:101F700002F091FD262002F084FD012002F08BFD8D
:101F8000E02002F07EFD0F2002F085FD312002F0FE
:101F900082FD2B2002F07FFD0C2002F07CFD0E2044
:101FA00002F079FD082002F076FD4E2002F073FD6C
:101FB000F12002F070FD372002F06DFD072002F0E5
:101FC0006AFD102002F067FD032002F064FD0E2080
:101FD00002F061FD092002F05EFD002002F05BFDD1
:101FE000E12002F04EFD002002F055FD0E2002F02F
:101FF00052FD142002F04FFD032002F04CFD112091
:1020000002F049FD072002F046FD312002F043FDB9
:10201000C12002F040FD482002F03DFD082002F002
:102020003AFD0F2002F037FD0C2002F034FD312084
:1020300002F031FD362002F02EFD0F2002F02BFDC4
:10204000112002F01EFD044800F092FDBDE8104092
:10205000292002F016BD0000C0D401002DE9F05F78
:1020600026484168F1B3DFF898B00E688146DBF886
:10207000004087688078E11B21F07F45ED1CB0B9F6
:10208000DFF880804FF48030C8F84403C8F80403B8
:102090001120FEF7C9FA1120FEF7DCFA4FF0010A11
:1020A000C8F800A02F2000F01DFD89F802A0B5425D
:1020B00000D23546124BE8193C3320F07F401860BF
:1020C000DBF800105A46091B21F07F41001B20F06D
:1020D0007F40C91C81420FD9106818602F2000F082
:1020E00001FD00E004E0BDE8F05F1120FEF7C8BA92
:1020F000BDE8F05F01F0F8BDBDE8F09FD4210020FD
:1021000004150140001001402DE9F04117880646F2
:10211000B81D14460D46984202D90C20BDE8F08146
:102120003188072206290AD34FF4486C4FF6FF7313
:10213000614501D9994202D17088062801D2104622
:10214000ECE7604501D99842F9D1994203D0984211
:1021500001D08142F3D80520E85520881221401C87
:1021600080B2208029542088401C80B220804119F0
:10217000308802F052FB2188084480B22080411947
:10218000708802F04AFB2188084420800020C5E7BF
:10219000FEF73EBEF8B5134800F028FA114D0026B0
:1021A000114C0C3D30B16169B9B101208DF80000CE
:1021B000684611E0287820B1616971B18DF800603E
:1021C000F6E7687858B1A168084800220068FEF771
:1021D0009DFE10B1A16901B188472E70F8BD6168FC
:1021E000F2E70000B8210020A0270020044B0200E5
:1021F0002DE9F04100260125144C22E06068226997
:1022000000EBC607387805FA00F1114217D08A436F
:10221000226100F001FE02463878E36805FA00F119
:10222000194002FA00F3994209D17978012901D0C5
:10223000012100E0002151407A6802B19047761CEC
:10224000F6B220788642D9D3BDE8F081C0210020C3
:10225000054810B51321408876DF0446E0B2FEF74A
:102260001DFF0028FAD110BD682100202DE9FE4F86
:102270009146984607460E464FF0FF32484501D238
:10228000012300E013460193414500D201224FF0A3
:10229000000B0092B9EB070000D5404205B2B8EB45
:1022A000060000D5404204B238460C9A01F0DAFB31
:1022B000A54204DA65406C4065404FF0010B601B9D
:1022C000400000B2029060000FFA80FAAAEB05000D
:1022D00004B21DE0002C09DB0198384487B2009855
:1022E000304486B20298204404B20CE004EB0A00A9
:1022F00004B2BBF1000F03D00098304486B202E074
:102300000198384487B2314638460C9A01F0AAFB4E
:102310004645DFD14F45DDD1BDE8FE8F0E4910B5F2
:102320000A784C780023A24212D0521CD2B20A7012
:10233000022A00D10B70084A0B78183252F8232079
:1023400002608868104420F07F408860012010BD42
:102350000360002010BD0000D42100208268838823
:102360001A4003689A5C0A708168491C8160704752
:10237000C26883881A4003689954C168491CC160C7
:10238000704710B50446C0B2FEF788FE204610BD67
:1023900020B10349496E0160002070470320704757
:1023A000B42800201FB5064B0FCB8DE80F00684600
:1023B00001F030F8002801D0FEF72AFD1FBD000013
:1023C000DC5402002DE9F041124E07460125BD40C4
:1023D0003068FEF7DFFD00280DD10F4C2069284240
:1023E00007D1384600F018FD0028E06805D02843E2
:1023F00004E0A8432061BDE8F081A843E0602069C3
:1024000028432061A1683068BDE8F0410022FEF752
:102410007DBD00001C4B0200C02100201FB51348E9
:10242000F02101804FF4A071418011490320C1F8CF
:102430000007104B0FCB8DE80F0019208DF800001E
:1024400018208DF8020017208DF8010016208DF855
:102450000300084800226946083800F02FFD0400F8
:1024600002D1FFF70BFD204604B010BD1C22002056
:10247000500000500C55020010B514468BB282B2C9
:1024800089B280B201F070FD142001F09CF9200A9D
:1024900001F050FEE0B201F04DFEBDE81040142006
:1024A00001F083B92DE9F0471F461646CA19521E9E
:1024B00093B28219521E92B2089C01F055FD4FEA68
:1024C000142904F0FF08142001F07DF900250DE027
:1024D000002407E0484601F02DFE404601F02AFEA8
:1024E000641CA4B2B442F5D36D1CADB2BD42EFD3AF
:1024F000BDE8F047142001F058B90000F8B51C4CB5
:102500002078002832D0E068002658B10025607895
:1025100000282BD1684648DF052805D030B1FEF7EA
:1025200077FC0AE00125F2E7012606E0009800F0BA
:10253000A1FB216909B1009888479DB960780028FE
:1025400014D16088ADF800006946A06861DF0528F5
:1025500003D020B1FEF75CFC04E0012502E0D4E9E1
:1025600002018847002ED2D0002DE6D0F8BD000031
:102570000822002070B50E460446007918494FF431
:10258000A27501EB4010017F2068A1B14FF4887162
:1025900001F06DF94FF49071206801F068F94FF483
:1025A0009271206801F063F92946206801F05FF913
:1025B0000C49206809E04FF48E7101F047F9294673
:1025C000206801F043F908492068C0F80413206826
:1025D00000F071FB3146BDE8704000F050BB0000D8
:1025E00028280020100302008000020005494088CE
:1025F0000A88904204D34988884201D80120704754
:1026000000207047B02100200348017AC90702D09A
:102610000078FFF7C9BA7047702100202DE9F04318
:10262000264CA4F110092278D9F8048099F80350B7
:10263000404694F801C0D9F8086031E002EB42034B
:102640006168521C01EBC301A378D2B2934200D15E
:1026500000220B78022B02D0032B21D11DE0034670
:102660004F68194603E0B94203D00B46C969B9B1B6
:10267000F9E7A9B18B4205D1C06918B9104E0125FF
:10268000B56000260F68C969D96149B10B683B4440
:102690000B6005E00174C06900E000210028F9D159
:1026A0009445CBD1C9E9010689F80350404502D0D1
:1026B0000120BDE8F0830020FBE70000E4210020BA
:1026C000001001402DE9F0412A4F0446002607F191
:1026D0001005D7F804803EE002D02046E4691DE0F2
:1026E0002878696800EB4002401CC0B201EBC201CF
:1026F0002870AA78904200D12E700A784868012A82
:102700002BD1027C4ABB8A684260CA6882600A692F
:10271000C26049698161F97801B146604368BA686D
:10272000DFF854C0991A21F07F41614502D28268D6
:10273000114406E0D11A826821F07F418A4202D911
:10274000511A016000E00660466001218660017454
:10275000C66101F0EBFD002CBED128786978884273
:10276000BED17968414502D00120BDE8F08100204A
:10277000FBE70000D4210020FFFF7F008AB0FFF7B5
:1027800011FE0920FFF710FB00235E4A05211846C1
:10279000FEF784FB08B1FEF73BFB18225A49684656
:1027A000FDF74AFE5948069059494FF48070CDE92B
:1027B000070109900723574A06A96846FEF714FC4B
:1027C00008B1FEF725FB0A231A46194652A001F06C
:1027D0001DFD544A40F6CD410320FFF799F908B199
:1027E000FEF716FB69460020FFF792F808B1FEF7E6
:1027F0000FFB0A231A2219464BA001F007FDFEF732
:10280000D7FF0A232A2219464AA001F0FFFC9DF8AF
:1028100008004CA120F00F00401C20F0F000103008
:102820008DF808000D2202A87CDF08B1FEF7F0FA4F
:10283000002400941020ADF800003C200194ADF875
:102840000200ADF804404FF4C870ADF806006846C9
:102850007ADF08B1FEF7DCFA3E4800902948694665
:102860007830FEF719FF08B1FEF7D2FA0A233A22B0
:10287000194639A001F0CAFCFEF734FA0A234A22AD
:10288000194639A001F0C2FC1C216846FDF7EDFD98
:102890004FF42030CDE900404FF470200290032027
:1028A0008DF80C003348059033480690ADF80E4083
:1028B0008DF810406846FEF73BFE08B1FEF7A8FA17
:1028C0000A235A2219462DA001F0A0FC01F0B6FC03
:1028D0002FA0FEF7C3F80320FEF7A8FD04460A2345
:1028E0006A2219462EA001F091FC200001D0FEF7CB
:1028F0008FFA0920FFF758FA3EDF0028FCD0FEF7D8
:1029000087FAF9E7CC250020B84A0200CC23002042
:10291000CC24002011450200756172745F696E69F4
:1029200074000000711A020062746E5F696E69744F
:1029300000000000626C655F737461636B5F696EB9
:10294000697400005265666C656B746F5F55415227
:10295000540000007D380200736572766963657308
:102960005F696E69740000006164765F696E697406
:1029700000000000193A020091210200636F6E6EA0
:102980005F706172616D735F696E69740000000051
:102990000D0A55415254205374617274210D0A007E
:1029A0004164766572746973696E675F737461728E
:1029B0007400000070B5144682880E4605462088D3
:1029C000111D0144921C994201D8FE2A01D90C2004
:1029D00070BD521C32542088FF21401C80B22080E0
:1029E00031542088401C80B220808119288801F051
:1029F00014FF2188084480B22080AA8842B1A968C7
:102A000041B13044FDF718FD2088A9880844208092
:102A1000002070BD072070BDF8B50E460178144641
:102A20000546012901D1687830B12088821C9A427C
:102A30002DD8012902D006E00720F8BD69780144AD
:102A4000891C994223D8181A801E87B2ADF80070ED
:102A50002188B01C084469467DDF0028EDD1287824
:102A6000022805D1BDF80010B94201D809210AE0B9
:102A70000821012805D16878B84202D8ADF80000D5
:102A800001E0ADF80070BDF80000FE2801D90C206F
:102A9000F8BD2288401CB0542088401C80B22080A1
:102AA00031542088401C2080BDF80010084420804C
:102AB0000020F8BDC20800F007030120895C98409F
:102AC0000840704700F180400068002800D00120D5
:102AD000704708B500F18040002101600068009057
:102AE00008BD000000283ED01F49204A096800BFE9
:102AF00000BF00BF00BF00BF00BF00BF00BF9142CA
:102B00002FD000BF00BF00BF00BF00BF00BF00BF8D
:102B100000BF00BF00BF00BF00BF00BF00BF00BFBD
:102B200000BF00BF00BF00BF00BF00BF00BF00BFAD
:102B300000BF00BF00BF00BF00BF00BF00BF00BF9D
:102B400000BF00BF00BF00BF00BF00BF00BF00BF8D
:102B500000BF00BF00BF00BF00BF00BF00BF00BF7D
:102B600000BF401EC3D17047202200200024F40083
:102B700000283ED01F49204A096800BF00BF00BF9F
:102B800000BF00BF00BF00BF00BF91422FD000BFF9
:102B900000BF00BF00BF00BF00BF00BF00BF00BF3D
:102BA00000BF00BF00BF00BF00BF00BF00BF00BF2D
:102BB00000BF00BF00BF00BF00BF00BF00BF00BF1D
:102BC00000BF00BF00BF00BF00BF00BF00BF00BF0D
:102BD00000BF00BF00BF00BF00BF00BF00BF00BFFD
:102BE00000BF00BF00BF00BF00BF00BF00BF401E4E
:102BF000C3D17047202200200024F40070B50F4C90
:102C00000025207808B1852516E00021A1606160CB
:102C10002161E1604FF0E020D0F80001012610F0C2
:102C2000010F03D10721002000F029F801F07CFA00
:102C300008B9034806602670284670BDBC270020EE
:102C40001805004038B500208DF800006846FEF7F2
:102C500043FA074C207808B9FFF7D0FFE068401C22
:102C6000E0600120A0709DF80000FEF759FA38BD21
:102C7000BC270020002801D1FFF7ECB870474907B6
:102C8000090E002806DA00F00F0202F1E02282F8B5
:102C9000141D03E000F1E02282F8001400F01F028E
:102CA000012191404009800000F1E020C0F880122D
:102CB000C0F800117047000B40B270472DE9F04199
:102CC0008846054600F0B6FE234E002828461AD056
:102CD000FFF762F8304490F848008009032802D0DA
:102CE00001280ED007E04FF0A040D0F81005E840D2
:102CF00010F0010F05D003212846BDE8F04100F097
:102D000043BD0221F8E700F0A1FE002822D02846AA
:102D1000FFF742F804464FF4807000EB84000F4F39
:102D200081B207EB8400D0F8102542F00102C0F810
:102D30001025084600F06EFDB8F1000F0AD02846B5
:102D4000FFF72AF856F82000002803D00120A04001
:102D5000C7F80403BDE8F081D027002000600040E0
:102D60002DE9FC41DFF8A480044608EB04000027AD
:102D700090F930001346C0170E46401C01D00827BA
:102D800041E0F27819462046FEF7E2FF0546401C76
:102D900038D0B07850B14FF0A04000EB8400D0F8AC
:102DA000001721F00201C0F8001707E00021737836
:102DB000204600910A46019100F082FCF078C0B1F3
:102DC0001348317800EB8500D0F81025114B1A40DC
:102DD000C0F810254FF4F8524FF4403302EA0422B1
:102DE00003EA01410A43D0F810150A43C0F8102540
:102DF00009E008EB0500327810F8481F41EA82111B
:102E0000017000E004273846BDE8FC81D02700208F
:102E100000600040FFE0FCFF4FF0A041D1F810152A
:102E2000C14011F0010000D00120704770B5144D71
:102E300095F8540008B1082070BD0020411E2A18E2
:102E4000401CC0B282F830102028F8D3002420465D
:102E5000FEF770FF641CE4B20C2CF8D307210620A7
:102E6000FFF70DFF4FF4BE7000F0D4FC05494FF0A2
:102E70000040C1F80403012085F85400002070BD13
:102E8000D027002000600040034890F8540000283C
:102E900000D0012070470000D02700200121B1EBB5
:102EA000507F01D101207047002070470121B1EB14
:102EB000507F01D101207047002070472DE9FC5F51
:102EC0000C464179DFF80CA180460AEB4117387EA9
:102ED00010B10820BDE8FC9F3A60207B01254FF02F
:102EE000A046012805D8217805FA01F0C6F80C059E
:102EF00002E0207800F060FC2178A946890001F109
:102F0000A041C1F800576578FF2D07D009FA05F0F8
:102F1000C6F80C05284600F01CFC01E04FF0FF3518
:102F2000A0784FF0000BFF280AD0002206465B462F
:102F3000CDF800B01146CDF804B000F0E5FB01E09B
:102F40004FF0FF36E078FF2804D000F035FCE07841
:102F500000F0FFFB98F80520E1780AEB421081763B
:102F6000D8F800002178C0F80815C0F80C55C0F852
:102F70001065A168C0F82415227B617B01B1012195
:102F8000012A04D0022A05D0032A08D105E041F025
:102F9000020104E041F0040101E041F00601C0F843
:102FA00054156179C0F8C015396811B14021C0F8D5
:102FB00004130721C0F80015386820B1217998F969
:102FC0000400FFF75CFE584687F819B087F81890A0
:102FD00080E70000482800201FB5069C00918DF86E
:102FE000042002938DF80C400022694600F002F89C
:102FF00004B010BDF0B413460D464179134A02EBFC
:1030000041114A7E12B1F0BC112070470C680122B8
:103010001CB113F0140F00D14A7695E8D010083196
:1030200081E8D01011F8154F24F0030401F81D4970
:103030008C7EFF2C04D04FF0A046A240C6F80C2591
:1030400000682A46F0BC01F087B80000482800203C
:103050002DE9F04105460079164F904607EB4014E4
:103060000E46E07E10B10820BDE8F081707F207729
:103070002846FEF76FF85FEA08006060316921605A
:1030800003D0317F2846FFF775FA287907EB401007
:10309000007F0028286801D0082100E00421C0F842
:1030A00000150020E0752076A0750121E176A0765C
:1030B000DAE70000282800202DE9F04105460079D4
:1030C000284E904606EB40140F46207F18B1084664
:1030D000FFF7E4FE80B1626800234FF404704FF400
:1030E000017172B12A7906EB4212127F002A2A6816
:1030F00005D0C2F8080304E01020BDE8F081C2F852
:103100000813E27DB2B1227E7AB162685AB12A799F
:1031100006EB4212127F1AB12968C1F8040302E0DB
:103120002868C0F804131120E7E72761012384F819
:10313000188005E084F817800020E760607620762C
:103140002879424606EB40103946007F0028284681
:1031500003D0BDE8F04100F073B8BDE8F04100F0E5
:103160001BB800002828002070B504460079094DDE
:1031700005EB4010017F00290AD1807E002807D18D
:10318000204600F062FE2179012005EB411188768E
:1031900070BD0000282800202DE9F05F044600796A
:1031A000264901EB4015A87E184302D1204600F0C5
:1031B0004CFE68680028206806D04FF40171C0F802
:1031C00004130020BDE8F09F4FF4A276314600F0D2
:1031D0003DFBB1464FF4927A4FF4847B5146206810
:1031E00000F02FFB06465946206800F02AFB804677
:1031F0004946206800F025FB074648EA07003043AF
:10320000ECD056EA070007D12946206800F08AFD75
:10321000E87D697E8842E1D80020E8750EB1032080
:10322000D0E70FB10F20CDE7A97E0120002921684A
:1032300001D00860C5E74860C3E7000028280020E7
:103240002DE9F05F894604464FF488759A4690460A
:1032500000260068294600F00AFB4FF4A2773946A1
:10326000206800F004FB2068C0F83495C0F8388569
:103270002068BAF1000F14D0D0F8001241F02001FC
:10328000C0F800122179DFF8648008EB4110406833
:1032900050B120684FF40471C0F804133046BDE803
:1032A000F09F01210160EDE7AA46B9464FF4927BF9
:1032B0005146206800F0D6FA07464946206800F0DB
:1032C000D1FA05465946206800F0CCFA014647EA93
:1032D00005000843ECD02379002208EB4310C275A7
:1032E00001B10326002DD9D00F26D7E728280020CA
:1032F0002DE9F047054600793F4E904606EB401415
:103300000F46207F18B10846FFF7C8FD30B12846A8
:1033100000F074F820B11120BDE8F0871020FBE721
:1033200084F81680A7600027A78228794FF001084B
:1033300006EB40143E46207F0028286825D04FF435
:103340009079494600F093FA4FF4AC7A51462868D8
:1033500000F08DFA2868A17DA268C0F84425C0F865
:1033600048152868C0F808806068F0B949462868A0
:1033700000F078FA80465146286800F073FA58EA5F
:103380000001F3D058BBA7750FE04FF48E7A514679
:1033900000F05CFA2868C0F808802146286801F02F
:1033A00049F861684FF4807089B13046B4E75146FE
:1033B000286800F046FA10B9A08A4845F7D1A08ADB
:1033C000484505D02146286801F034F800E08146E0
:1033D000A08AA17D8842EAD3A08A484501D10F2660
:1033E000D1E75146286800F02CFA0028F9D0286867
:1033F000C0F80C80C7E700002828002000790449A5
:1034000001EB4010807D002800D0012070470000B3
:1034100028280020054942680A6082684A6082893B
:103420000A81C2894A810068004700001C290020E7
:103430002DE9F84304460D460088A2886188E38898
:103440004FF000094E46B0EB020CA1EB030701D58B
:10345000CCF1000C002F00DA7F42B4F80880BC45A4
:1034600001DD464600E0C146904201D099420FD1AD
:10347000121A5B1A009500D55B4233449BB2002AB6
:1034800000DA52424A4492B200F0FCFBBDE8F883F5
:10349000B9F1000F12D000260CE00095A088E38857
:1034A000304482B220886188304480B2FEF7DEFE6C
:1034B000761CB6B22089B042EFD8E7E796B1002675
:1034C0000CE00095E088A288304483B260883044E4
:1034D00081B22088FEF7CAFE761CB6B22089B042BF
:1034E000EFD8D3E70095FEF7C1FECFE72DE9F84FFF
:1034F000804606884788204891468B4601895A882D
:103500001D46891AB14235DB82464089A988401A96
:10351000B8422FDB5FF0000419F80410002929D00D
:103520003B4632462846CDF800B001F02AFA6988B9
:10353000E888BAF808200844304486B2511AB142EB
:1035400015DA0A99002915D0A9882A89B8F80060E7
:103550000A443A4497B209EB04025278202A01D176
:10356000641CE4B2BAF80A00401AB84202DB641CD8
:10357000E4B2D1E7BDE8F88F1C2900202DE9FE4F09
:103580000D4681880446481B87B2E0889246421B5C
:10359000DDF83090984696B2012907D0012805D071
:1035A000B1EB450F02D3B0EB450F02D20720BDE8C7
:1035B000FE8FE5B32088ADF800006088ADF802000A
:1035C0002088A1880844ADF804006088ADF80600A2
:1035D000ADF8085051466846FFF72AFF2088ADF83D
:1035E000000060883044ADF802002088A1880844BB
:1035F000ADF80400608851463044ADF806006846D6
:10360000FFF716FF2088ADF8000060885146284477
:10361000ADF802002088ADF8040060883044ADF8B1
:1036200006006846FFF704FF2088384400E011E0F8
:10363000ADF80000608851462844ADF802002088AB
:103640003844ADF8040060883044ADF806006846A0
:10365000FFF7EEFEB8F1000F12D0CDF80090E18830
:10366000684201EB40018BB2A18801EB400082B2BD
:103670006088284481B22088284480B200F002FB90
:10368000002094E708B5002100900348438902898F
:10369000084600F0F7FA08BD1C29002070B541EA81
:1036A0004201DDE904564FF0A04441EA830141EABA
:1036B000052104EB800041EA0641C0F8001770BD07
:1036C00070B541EA4201DDE904564FF0A04441EAF9
:1036D000830141EA052104EB800041EA0641C0F87C
:1036E000001770BD70B541EA4201DDE904564FF0A4
:1036F000A04441EA830141EA052104EB800041EA4C
:103700000641C0F8001770BD70B541EA4201DDE91D
:1037100004564FF0A04441EA830141EA052104EB3D
:10372000800041EA0641C0F8001770BD1CB50022B8
:103730000B46009211460192FFF7D4FF1CBD1CB549
:10374000002100910B46012201911146FFF7CAFFAB
:103750001CBD1CB5002100910B46012201911146B0
:10376000FFF7D2FF1CBD4FF0A04202EB8000D0F863
:10377000002722F44032C0F80027D0F8002742EAA0
:103780000141C0F8001770474FF0A04202EB8000E3
:10379000D0F8002722F44032C0F80027D0F80027E4
:1037A00042EA0141C0F8001770474FF0A0420121E2
:1037B0008140C2F80C1570474FF0A04201218140B2
:1037C000C2F8081570474FF0A04201218140C2F8AD
:1037D0000815704701224FF0A043824011B1C3F891
:1037E00008257047C3F80C257047000018B5084B32
:1037F0006C4601441B68009306E000BF54F820307B
:10380000D3F81035401C08C28142F7D818BD00001B
:10381000184B0200034908B5084400210160006804
:10382000009008BD0060004002494058012800D0C7
:1038300000207047006000404058002800D0012060
:1038400070474058002800D00120704708B500227A
:1038500042504058009008BDD0F80403084000D002
:10386000012070474058002800D00120704708B55B
:10387000002242504058009008BD000070B50C4630
:103880001646002512211748FCF7EFFD02201549C6
:103890000BE0431B0B4403F8022C225C203A612A04
:1038A00001D36D1CEDB2401CC0B2B04202D2225C0A
:1038B0000A2AEED100208855607833462038C2B2FB
:1038C00020783038C1B2074800F008F9064C60682B
:1038D000FDF760FB6068BDE8704000224FF44821AE
:1038E000FDF714BB54230020AC4A020010B550B1C0
:1038F00003280CD10220FEF7FFF8002807D0BDE80E
:103900001040FDF785BABDE8104000F09DBB10BD2A
:1039100070B53F4D04460188688888B03B2945D082
:103920000DDC022946D03B4E102914D0112923D09A
:10393000132964D100231A4685217FDF2FE0512906
:103940003CD0522927D055295DD0562957D1A0887F
:10395000132176DF23E00720FEF7CEF808B1FDF74C
:1039600057FAA0886880306808B00022BDE870402F
:103970004FF44041FDF7CABA0020FEF7BDF808B188
:10398000FDF746FA4FF6FF706880306808B0BDE872
:103990007040FDF7FFBA00231A461946A9DF002838
:1039A0002DD008B0BDE87040FDF732BAA0881321D1
:1039B00076DFF4E7A088002167DFF0E71022A11D81
:1039C00004A8FCF739FD9DF81010002917D09DF8C8
:1039D0001800042803D0062801D005280FD1022999
:1039E0000FD001208DF800004FF4C170ADF8040035
:1039F000A0886946A8DF002801D0FDF709FA08B0C1
:103A000070BD0220EEE7A0881721ADDFC7E70000F8
:103A100068210020AC4A02000078002807D1044841
:103A20003B21408876DF002801D0FDF7F1B97047CF
:103A3000682100200449084490F93000082801DB7F
:103A40000120704700207047D02700200449084417
:103A500090F93000082801D20120704700207047FB
:103A6000D0270020064B30B41C89844205D35C89E2
:103A70008C4202D31B6830BC184730BC7047000032
:103A80001C29002010B504460020FEF78DF92046C1
:103A90000A231A22BDE810401C2100F0B7BB10B564
:103AA00004460120FEF780F9204605230A22BDE8DE
:103AB0001040822100F0AABB05231422822100F0CD
:103AC000A5BB10B504460520FEF76EF90A23204673
:103AD000BDE81040B622194600F098BB092918D25B
:103AE000DFE801F00507090B0D0F11131500FFF7B3
:103AF000C9BFFFF7D4BF00F017B800F02BB800F033
:103B000079B8FFF7DEBFFFF7D7BF00F0B5B800F018
:103B100053B805234FF49B72322101A000F076BB0D
:103B2000426164446174610010B504462421084870
:103B3000FCF79BFC064901204831887004480021AD
:103B4000625C4254491CC9B21229F9D310BD00006D
:103B50003829002070B5174A00211346545C24B15F
:103B6000491CC9B21229F8D30AE02C245454491C28
:103B7000C9B2202402E05454491CC9B21229FAD314
:103B800000228D18845C521CD2B25C55122AF8D3E4
:103B90000320FEF709F9074C4834A078012805D125
:103BA0000A234A221946034800F030FB0020A07087
:103BB00070BD00003829002010B504460820FEF72B
:103BC000F3F80A23EA22194605A000F01FFB20465D
:103BD0000A23BDE8104040F20312194600F016BB5C
:103BE000596F7572206E657874206576656E743ACB
:103BF000000000002DE9F04106460420FEF7D4F84D
:103C000024211748FCF731FC1549012024310024F8
:103C1000087114A7124D03E0385D2855641CE4B206
:103C20003846FCF72DFCA042F6D820202855641C0D
:103C3000E0B200214318725C491CC9B2EA5412294F
:103C4000F8D30A238A221946054800F0DFFABDE8B6
:103C5000F0410A23A322194604A000F0D7BA0000BD
:103C60005C290020596F7520617265004920616DE3
:103C7000207375726521000005231E22822100F049
:103C8000C5BA00002DE9F84F064616488946DDF80A
:103C900028B001899A461746B1420AD3428949465B
:103CA0004A4506D3446834B13A463046CDF800B0B0
:103CB000A047BDE8F88F002511E0002409EB0508B6
:103CC00009E000BF30191FFA88F180B25A46FFF7A9
:103CD000C9FE641CA4B2BC42F4D36D1CADB2554500
:103CE000EBD3E6E71C29002070B5012670044FF0E5
:103CF000E0210025C1F88001084C4010C4F84803B9
:103D0000C4F8080366602F20FEF7ECFEA660044CA2
:103D10002F20A560FEF7E6FEA57070BD00100140E3
:103D2000D421002070B50546C87D0C4600284FF40C
:103D3000847128460AD0FFF789FDD5F81805627E00
:103D4000E1688854607E401C607670BDFFF77EFDA0
:103D5000D5F8180570BD30B58FB00024054607941E
:103D60009DF81C001C2120F00F00401C20F0F000EA
:103D700010308DF81C009DF81D0020F00F00401C35
:103D800020F0F00010308DF81D009DF81E0020F08E
:103D90000600801C8DF81E006846FCF766FB9DF847
:103DA0000000019440F010008DF8000007A8CDE954
:103DB00004400394069428788DF83A000320ADF867
:103DC00038000D949DF83400142120F00F00401CA1
:103DD00020F0F00010308DF834009DF8350020F010
:103DE0000F00401C20F0F00010308DF835009DF8D9
:103DF000360020F00600801C20F0180040F0010082
:103E00008DF8360008A8FCF730FB0EA808900DA826
:103E100009900120ADF828001420ADF82A40ADF833
:103E20002C00688805F10C0308AA6946A2DF0FB0D0
:103E300030BD1FB501238DF800308DF808100192B8
:103E4000D0E90012684690471FBD10B504460068CF
:103E50004FF49271FFF7FAFC4FF484712068FFF77A
:103E6000F5FC20680121016010BD0920FDF79CBF11
:103E700010B50446FCF70AFE40B1002C09DA04F044
:103E80000F0000F1E02090F8140D06E042F201006E
:103E900010BD04F1E02090F800044109082914D273
:103EA00099B1012911D004290FD005290DD00B4853
:103EB0000122816861B1610950F8213004F01F04CA
:103EC000A240134340F8213005E042F2020010BD49
:103ED0002046FCF7CAFB002010BD0000A8280020E7
:103EE0002DE9F0410746806A14468846C8B300258C
:103EF00031E000BFB96A05EB450001EB8006B088F0
:103F0000801CFE2802D90C20BDE8F0812288401CCC
:103F100008F8020020881622401C80B2208008F891
:103F200000202088401C80B2208000EB08013088EF
:103F300000F073FC2188084480B22080B28842B12E
:103F4000B16871B14044FCF777FA2088B188084421
:103F500020806D1CEDB297F82C00A842CAD8002032
:103F6000D2E7FFE70720CFE72DE9F04107461C46DF
:103F700015460E462A2000F084FD380A00F08BFD1D
:103F8000F8B200F088FD280A00F085FDE8B200F0E4
:103F900082FD2B2000F075FD300A00F07CFDF0B2B0
:103FA00000F079FD200A00F076FDE0B200F073FD2C
:103FB000BDE8F0412C2000F064BD000010B50F49B1
:103FC0000F4C0A8A42818A8A8281097891B161798B
:103FD00081B9E17971B102210172084904202031CF
:103FE000C870064800212030FDF710F9002804D1E0
:103FF000052000E00320A070002010BDCC2600208A
:104000008C21002010B50E490E4C0A8B42818A8B00
:1040100082810A78042182B1627972B9E27962B14F
:104020000222027206482030C1700021FDF7EEF82E
:10403000002804D10620A07000E0A170002010BD6F
:10404000CC2600208C21002010B50020FDF754FD67
:1040500008B1FCF7DDFEFDF7AFFC08B1FCF7D8FEB8
:1040600032DF002803D0BDE81040FCF7D1BE10BD00
:1040700018B10349C860002070470E207047000047
:10408000082200201CB5034901910091694660DFB8
:104090001CBD00006821002070B50E460546144680
:1040A0001C211046FCF7E1F9012020800021A161CC
:1040B00021752672657205B1A072002070BDFCF7F3
:1040C00095BE00002DE9F041074619B188074FF071
:1040D000000402D00720BDE8F081114D4FF0E02030
:1040E0000126A9606A806B60D0F8000110F0010F12
:1040F00003D034460020FCF7A2FA0A49384610DF04
:10410000070005D014B10020FCF7AFFA3846E2E70B
:104110002E70FEF797FDBDE8F0411620FFF7A8BE10
:1041200008220020BF4002000148007870470000CC
:104130000822002001B582B0002003460090012231
:1041400002A90448FEF748FF002801D0FCF760FEF2
:104150000EBD0000045502002DE9F8430446106826
:104160001E4615460F464FF0000810B1FEF79EFEA2
:10417000F8B1A86810B1FEF799FED0B12879296886
:10418000C4F84415C4F84805287BA968C4F8341558
:10419000C4F838054FF48C754046C4F81881D4F83B
:1041A00018110091F2074FF0010107D0C4F8501523
:1041B00006E087F819801020BDE8F883C4F85005A0
:1041C000B20702D5C4F8401501E0C4F84005300735
:1041D00000D42161386848B146F38000401C4FF09C
:1041E00040000FD0C4F804030020E5E7294620462C
:1041F000FFF722FB0028F9D0B87EFF28F4D0FFF7A4
:10420000DBFAF1E7C4F80803EEE700001CB5ADF8EF
:104210000410ADF8062001224FF6FF710A2B009220
:1042200005D0044B024601A8FFF760F91CBD024B04
:10423000F8E70000244D0200B454020010B500233A
:10424000134A05211846FCF729FE08B1FCF7E0FDEA
:10425000104A01211048FCF70FFE0F480022001FF2
:104260004FF448214068FCF751FE094A0023783298
:1042700005211846FCF712FE08B1FCF7C9FD0648F7
:104280000121BDE81040054A001FFCF7F5BD000004
:10429000642200206B3E0200B04A0200512202005C
:1042A0002DE9F84F204C00256846D4E901B6FEF709
:1042B00035F88046FEF7B2F90746A946B8F1000F77
:1042C00025D00023009ACC46606819E007680146B3
:1042D000974202D9BA1A026014E0C1F800C0D1F8BE
:1042E0000C80D21BC8693B448A46B8F1000F07D046
:1042F000F71827F07F47C1E90178CAF81C500D462E
:104300000028E3D160602846FEF7DCF904E0284687
:10431000FEF7D8F900B917B15846FDF79FFE84F8AB
:104320000390BDE8F88F0000D42100200D4B10B59C
:10433000596831B102680C68A24204D8A21A0A6016
:10434000C161586010BD0B4603E00B46C969121BE2
:1043500021B10C689442F8D3A41A0C600260C161C8
:10436000D86110BDD42100207CB5064600240D463E
:104370008DF800406846FCF7AFFE01A800F082FA15
:1043800070B10570094946609DF8040048709DF8B9
:104390000000FCF7C5FE1420FCF772F920467CBD36
:1043A00004249DF80000FCF7BBFEF7E7E4210020A1
:1043B0002DE9F0411D4D6C68002C35D01C480027BC
:1043C0000068A968B846401A20F07F462068B042CD
:1043D00015D82246361A0744E469107C68B182F881
:1043E0001080EB6833B1D2E90501984728B1FCF79A
:1043F0000FFD02E0D2E905108847002CE6D12978AC
:104400006878814206D1401CC0B26870022801D190
:1044100085F8018005486978183040F82170BDE8BA
:10442000F0411420FCF72CB9BDE8F081D421002024
:104430000415014070B50C4605464FF48E71FFF728
:1044400005FAA18AA068415CA08A401CA082C5F838
:104450001C1570BD30B58FB005461C216846FCF7B1
:1044600004F800249DF80000019440F00C008DF841
:104470000000039404940594069428788DF836007F
:104480000220ADF834000C949DF83000142120F087
:104490000F00401C20F0F00010308DF830009DF827
:1044A000310020F00F00401C20F0F00010308DF89B
:1044B00031009DF8320020F00600801C20F018002A
:1044C00040F001008DF8320007A8FBF7CEFF0DA8E1
:1044D00007900CA808900120ADF824001420ADF836
:1044E0002640ADF8280068882B1D07AA6946A2DF80
:1044F0000FB030BD1FB500228DF800208DF80810D8
:10450000816801918275D0E90012684690471FBD0D
:1045100070B5017841B1012901D0022921D140684B
:10452000BDE87040FCF774BC0F4C0E4D2078284459
:10453000FCF740FD2078401CC2B2A818227010F889
:10454000010C0A2801D0142A0BD3064901F5237067
:10455000FDF702F9082802D008B1FCF759FC002049
:10456000207070BDB8230020682100207CB5017840
:10457000244D81B301290BD002292BD18DF80010D5
:10458000C068691C01900122C81DFEF795FD2EE050
:10459000406801781C48FCF761FC1B4C012618B1EF
:1045A0008DF80060019006E0A068E168814205D0C6
:1045B00000208DF80000696868468847A068E168B7
:1045C000081AA188884207D80E490122491CC81D33
:1045D000FEF772FD7CBD01E0AE70FBE70A480949B9
:1045E0001030FCF720FC30B103208DF80000696822
:1045F00068468847EEE70349012201F10800FEF70B
:1046000077FEE7E7F4210020882800202DE9FF4706
:104610000C4605464FF40071FFF71EF901274FF4D1
:104620000178002618B34FF4927949462846FFF7DF
:1046300008F9E0B149462846FFF708F9C5F80883AC
:10464000A07E00B96F6002208DF80000D5F88004CC
:10465000C5F880040390E07D8DF80800E0680190C3
:10466000E6752676D4E900126846904727E00421D3
:104670002846FFF7F1F810B34FF484712846FFF78E
:10468000E0F8E0B121462846FFF74CFBE07D617E73
:10469000884214D1207E38B1617EE268E0752069DD
:1046A000E0602676667607E0A07E00B96F60C5F808
:1046B0000883E675617EE2682046FFF7BAFB4FF497
:1046C0008E7841462846FFF7BCF888B1A08AA17DC4
:1046D000884204D221462846FFF7ACFE08E0414656
:1046E0002846FFF7B3F8A17D11B12046FFF702FF7E
:1046F0004FF4A27841462846FFF7A3F8002812D0CD
:1047000041462846FFF7A2F8A07E00B12F60E07D69
:10471000002808D0E675617EE26804B02046BDE856
:10472000F047FFF786BBBDE8FF872DE9FF410C4648
:104730004FF4927705463946FFF794F80026C0B14A
:1047400039462846FFF793F802208DF80000D5F887
:104750008004C5F880040390D5F83C058DF8080066
:10476000E0680190E6752676D4E900126846904725
:1047700024E04FF4887739462846FFF773F8E8B10C
:1047800039462846FFF773F8D5F83C05C1B2E07DFD
:10479000884213D1207E60B1E268D5F8000220F093
:1047A0002000C5F80002207EE0752069E0602676D2
:1047B00001E0E675E2682046FFF73BFB4FF4A27785
:1047C00039462846FFF74EF868B139462846FFF7C4
:1047D0004EF8E07D38B1E675D5F83C05E268C1B227
:1047E0002046FFF726FB4FF4907631462846FFF728
:1047F00039F800280FD031462846FFF738F8A07D59
:10480000002808D0D5F84C0504B0C1B22046BDE858
:10481000F041FFF76FBEBDE8FF810870000A4870E5
:104820000220704738B515494888A0F57F42FF3A05
:1048300023D04A78124C521CD2B24A70237B934246
:104840000AD3091D75DF002817D0A169002914D0EB
:1048500001B0BDE83040084700254D70217C29B1EA
:104860003B2176DF10B1A16901B188476169002958
:1048700003D08DF800506846884738BDAC21002031
:10488000A02700200A4A10B553789478591CC9B261
:104890008C4200D1002114788C4201D1002010BD3F
:1048A0000170506803EB430100EBC10010BD000034
:1048B000E42100202DE9FC411646DDE90854CDE94C
:1048C00000541F468046022200F00CF8002807D151
:1048D000CDE900543B4610223146404600F002F834
:1048E000BDE8FC812DE9FC5F0026DDE90C4B994613
:1048F00092468E4680462788354630E0D8F8040038
:10490000002200EB850069460068019001A865DF80
:10491000002830D19DF8000050451FD10EB1002174
:1049200000E00221228808441118594522D846B9CE
:10493000521C90B2208009F800E02088401C2080A2
:104940000126218801A801EB0902694665DF0028DC
:1049500011D120889DF80010084420806D1CB8F803
:104960000000A842CADC56B12088C01B401E80B29D
:10497000FF2802D90C20BDE8FC9F09F807000020A1
:10498000F9E72DE9F05F0446807A9A4690460E4694
:104990004FF0010918B1012824D1002744E0002775
:1049A0001DE0002508EB070B14E021786288E06821
:1049B000711A01FB0200395C09FA05F0014207D0C7
:1049C0000AEB050081B21FFA8BF00A9AFFF74AF84A
:1049D0006D1CEDB2A088A842E7D87F1CFFB26088AA
:1049E000B842DED8BDE8F09F002508EB070B15E0C4
:1049F00020786188301A4843E16807EB4000095C81
:104A000009FA05F0014207D00AEB050081B21FFA4E
:104A10008BF00A9AFFF726F86D1CEDB2A088B5EB73
:104A2000500FE5D37F1CFFB26088B842DCD8A7786E
:104A300022E0002508EB070B18E02078E368321A23
:104A40006088424307EB42029B5C09FA05F213427D
:104A50000AD00AEB050202EB5101ABEB000089B270
:104A600080B20A9AFEF7FEFF6D1CEDB2A188B5EB8D
:104A7000510FE2D37F1CFFB26088B7EB400FD8D351
:104A8000B0E710B504461420FEF78FFE2046BDE8BF
:104A90001040FFF74FBB10B504461420FEF793FEFD
:104AA0002046BDE81040FFF745BB0000242200204F
:104AB000442200200100000708000000060000005A
:104AC00005000000070000000000000000E0D70122
:104AD000111213140D0E0F106026002080260020E6
:104AE000AC2600200D000300D91902000E000300BF
:104AF000D91902000F000300D919020010000300A9
:104B0000D9190200802700209ECADC240EE5A9E006
:104B100093F3A3B50000406E000000506828002009
:104B200003000000FFFFFFFFFFFFFFFFFFFFFFFF8E
:104B3000FFFFFFFF00000000000000000000D601A2
:104B400007010000000000000000005F00000007F7
:104B5000000700147F147F14242A7F2A12231308CD
:104B6000646236495522500005030000001C2241B2
:104B7000000041221C00082A1C2A0808083E0808D8
:104B8000005030000008080808080060600000209D
:104B9000100804023E5149453E00427F40004261F8
:104BA0005149462141454B311814127F1027454584
:104BB00045393C4A4949300171090503364949499B
:104BC00036064949291E00363600000056360000D8
:104BD0000008142241141414141441221408000271
:104BE00001510906324979413E7E1111117E7F49FA
:104BF0004949363E414141227F4141221C7F49497A
:104C000049417F090901013E414151327F080808AD
:104C10007F00417F41002040413F017F0814224135
:104C20007F404040407F0204027F7F0408107F3EA7
:104C30004141413E7F090909063E4151215E7F09FC
:104C4000192946464949493101017F01013F404048
:104C5000403F1F2040201F7F2018207F631408142E
:104C6000630304780403615149454300007F4141D7
:104C7000020408102041417F0000040201020440A8
:104C800040404040000102040020545454787F48C2
:104C90004444383844444420384444487F385454C9
:104CA0005418087E090102081454543C7F08040477
:104CB0007800447D40002040443D00007F1028449F
:104CC00000417F40007C041804787C080404783894
:104CD000444444387C14141408081414187C7C08C8
:104CE0000404084854545420043F4440203C4040AD
:104CF000207C1C2040201C3C4030403C4428102894
:104D0000440C5050503C4464544C4400083641001C
:104D100000007F0000004136080008082A1C08082F
:104D20001C2A0808200005000700020003000000FC
:104D3000444B0200000000000000000000000000E2
:104D4000000000000000000000007CFFFF7C00006D
:104D5000000000000033330000000000263E1E006B
:104D600000263E1E000000000000000000000000C1
:104D70000010F0FE1E10F0FE1E10021E1F03021E89
:104D80001F03000078FCCCFFFFCCCC880000040C93
:104D90000C3F3F0C0F070000386C6C3880C0E0708F
:104DA000381C181C0E0703011C36361C00B8FCC644
:104DB000E23E1C0000001F3F3121371E1C3622003E
:104DC0000000263E1E000000000000000000000061
:104DD0000000000000F0FCFE0701010000000003DD
:104DE0000F1F38202000000000010107FEFCF0002A
:104DF0000000002020381F0F030000000098B8E0DA
:104E0000F8F8E0B89800000C0E030F0F030E0C002A
:104E100000808080F0F080808000000101010F0F91
:104E2000010101000000000000000000000000007F
:104E3000004C7C3C000000000080808080808080EE
:104E400080000001010101010101010000000000DA
:104E500000000000000000000038383800000000AA
:104E600000000080C0E070381C0E1C0E070301001B
:104E700000000000F8FE0683C363331EFEF8071F20
:104E80001B31303030181F07000C0C0EFFFF0000E4
:104E90000000003030303F3F303030001C1E070330
:104EA00083C3E3773E1C383C3E37333130303030FB
:104EB0000C0E07C3C3C3C3E77E3C0C1C3830303034
:104EC00030391F0EC0E070381C0EFFFF00000707CE
:104ED000060606063F3F0606787F6763636363E363
:104EE000C3830C1C3830303030381F0FC0F0F8DC72
:104EF000CEC7C3C380000F1F3930303030391F0F89
:104F00000303030303C3F33F0F030000303C0F030D
:104F10000000000000BCFEE7C3C3E7FEBC000F1F9B
:104F20003930303030391F0F3C7EE7C3C3C3C3E78D
:104F3000FEFC00303030381C0E070300000000700B
:104F40007070000000000000001C1C1C000000002D
:104F5000000000707070000000000000004C7C7CBD
:104F60000000000000C0E0F0381C0E070300000045
:104F70000103070E1C3830000060606060606060F4
:104F80006000000606060606060606000003070E79
:104F90001C38F0E0C0000030381C0E070301000090
:104FA0001C1E070383C3E3773E1C00000000373755
:104FB00000000000FCFE03F31BFBFB07FEF80F1FC5
:104FC00030333637373603010000E0FC1F1FFCE0AA
:104FD0000000383F0706060606073F38FFFFC3C339
:104FE000C3C3E7FEBC003F3F3030303030391F0FC5
:104FF000F0FC0E07030303070E0C030F1C383030C0
:1050000030381C0CFFFF03030303070EFCF03F3F87
:1050100030303030381C0F03FFFFC3C3C3C3C3C3DA
:1050200003033F3F3030303030303030FFFFC3C3F8
:10503000C3C3C3C303033F3F0000000000000000E0
:10504000F0FC0E0703C3C3C3C7C6030F1C383030C0
:1050500030303F3FFFFFC0C0C0C0C0C0FFFF3F3F78
:105060000000000000003F3F00000303FFFF0303B8
:105070000000000030303F3F3030000000000000F2
:1050800000000000FFFF0E1E3830303030381F07A0
:10509000FFFFC0E0F0381C0E07033F3F000103078D
:1050A0000E1C3830FFFF00000000000000003F3FF2
:1050B0003030303030303030FFFF1E78E0E0781E86
:1050C000FFFF3F3F0000010100003F3FFFFF0E38A0
:1050D000F0C00000FFFF3F3F00000003071C3F3F00
:1050E000F0FC0E070303070EFCF0030F1C383030F2
:1050F000381C0F03FFFF8383838383C7FE7C3F3FFE
:105100000101010101010000F0FC0E070303070E7D
:10511000FCF0030F1C3830363E1C3F33FFFF838307
:10512000838383C7FE7C3F3F010103070F1D383097
:105130003C7EE7C3C3C3C3C78E0C0C1C3830303071
:1051400030391F0F03030303FFFF030303030000B2
:1051500000003F3F00000000FFFF000000000000D3
:10516000FFFF071F3830303030381F07073FF8C0C7
:105170000000C0F83F070000010F3E3E0F01000095
:10518000FFFF000080800000FFFF3F3F1C0603037D
:10519000061C3F3F030F1C30E0E0301C0F03303C87
:1051A0000E030101030E3C30030F3CF0C0C0F03C85
:1051B0000F03000000003F3F000000000303030353
:1051C000C3E3331F0F03303C3E33313030303030D7
:1051D0000000FFFF03030303000000003F3F3030E7
:1051E000303000001C3870E0C0800000000000007B
:1051F00000000103070E1C18000003030303FFFF58
:1052000000000000303030303F3F000070381C0E8E
:10521000070E1C38700000000000000000000000B5
:1052200000000000000000000000C0C0C0C0C0C0FE
:10523000C0C0C0C00000003E7E460000000000006C
:1052400000000000000000000040606060606060DE
:10525000E0C01C3E3333333333333F3FFFFFC06086
:10526000606060E0C0803F3F3030303030381F0F2A
:1052700080C0E06060606060C0800F1F38303030F8
:105280003030180880C0E0606060E0C0FFFF0F1F92
:105290003830303030303F3F80C0E0606060606068
:1052A000C0800F1F3B33333333331301000000F052
:1052B000F81C0C0C00000003037F7F0303030000B5
:1052C000C0E0703030303030F0F001636766666601
:1052D00066733F1FFFFFC0606060E0C080003F3F1B
:1052E00000000000003F3F0000000060ECEC000008
:1052F0000000000030303F3F303000000000000070
:105300000060ECEC00000000307060607F3F000047
:1053100000FFFF0080C0E0600000003F3F03070F78
:105320001C38300000000003FFFF000000000000F8
:1053300030303F3F30300000E0C0E0E0C0C0E0E08F
:10534000C0803F3F00003F3F00003F3F00E0E0C023
:10535000606060E0C080003F3F00000000003F3F11
:1053600080C0E060606060E0C0800F1F3830303087
:1053700030381F0FF0F0303030303070E0C07F7FB9
:10538000060C0C0C0C0E0703C0E0703030303030CF
:10539000F0F003070E0C0C0C0C067F7F00E0E0C061
:1053A00060606060E0C0003F3F000000000000005F
:1053B00000C0E06060606060400000113333333350
:1053C000333F1E00006060FEFE6060600000000071
:1053D000001F3F3030303000E0E0000000000000EF
:1053E000E0E00F1F3830303030183F3F60E0800081
:1053F00000000080E0600001071E38381E07010031
:10540000E0E00000E0E00000E0E0071F381C0F0FC4
:105410001C381F0760E0C0800080C0E060003038AA
:105420001D0F070F1D383000000030F0C00000C015
:10543000F03000000040733F0F03000040606060E8
:1054400060E0E060200030383C363331303010000E
:105450000080C0F87C0E060606000000010F1F3811
:105460003030300000000000FFFF000000000000AE
:1054700000003F3F00000000000606060E7CF8C05A
:10548000800000303030381F0F01000040603010C5
:10549000306040603010080C0602060C080C060252
:1054A0000080C060303060C080000F0F0C0C0C0C0E
:1054B0000C0C0F0F20000A00100003000500010073
:1054C000344D0200000000000A0000007800A00037
:1054D0000200020000000000F00040011D24020054
:1054E00079240200A5240200F00040010000000021
:1054F0000000400102000000F000400100004001F7
:10550000010000000030004003000100FFFFFFFF2A
:1055100007FF000000000040000000003C550200B2
:1055200068210020BC0000006C0A0200F85502004F
:10553000242200206C2700007C0A02000000FFFFEC
:105540000100020000000000000000000000000058
:10555000000000000000000000000000000000004B
:10556000000000000000000000000000000000003B
:10557000000000000000000000000000000000002B
:10558000000000000000000000000000000000001B
:10559000000000000000000000000000000000000B
:1055A00000000000000000000000000000000000FB
:1055B00000000000000000000000000000000000EB
:1055C00000000000000000000000000000000000DB
:1055D000002000400000000000000000000000006B
:1055E00000000000000000000000000000000000BB
:0855F000000000000090D00350
:0400000500020401F0
:00000001FF
